:10000000F8FF002011040000476700004767000068
:100010004767000047670000476700004767000028
:100020004767000047670000476700004767000018
:100030004767000047670000476700004767000008
:1000400047670000476700004767000047670000F8
:10040000FFFFFFFFFFFFFFFFFFFFFFFFFEFFFFFFFD
:1004100062B60BF059FFFEE70000B0409A99193E12
:100420000000803F0000484350003C0050003C006A
:10043000510000007C060000640500000102030476
:1004400005060708090A0B0C0D0E0F1011121314E4
:1004500015161718191A1B1C1D1E1F2021222324D4
:1004600025262728292A2B2C2D2E2F3031323334C4
:1004700035363738393A3B3C3D3E3F4041424344B4
:1004800045464748494A4B4C4D4E4FFFFF0102033A
:100490000405060708090A0B0C0D0E0F10111213A4
:1004A0001415161718191A1B1C1D1E1F2021222394
:1004B00024252627292A2B2C2D2E2F303132333478
:1004C00035363738393A3B3C3D3E3F404142434464
:1004D00045464748494A4B4C4D4EFFFFFF0001023D
:1004E0000304050708090A0B0C0D0E0F1011121357
:1004F0001415161718191A1B1C1D1E1F2021222344
:1005000024252627292A2B2C2D2E2F303132333427
:1005100035363738393A3B3C3D3E3F404142434413
:1005200045464748494B4C4D4E4FFFFFFFFF0102E8
:10053000030405060708090A0B0C0D0E0F10121311
:100540001415161718191A1B1C1D1E1F20212223F3
:1005500024252627292A2B2C2D2E2F3031323334D7
:1005600035363738393A3B3C3D3E404142434445BD
:10057000464748494A4B4C4D4EFFFFFFFFFF0001E5
:10058000020304050708090A0B0C0D0E0F101112C7
:100590001314151618191A1B1C1D1E1F20212223A7
:1005A00024252627292A2B2C2D2E2F303132333487
:1005B000353637383A3B3C3D3E3F40414243444567
:1005C000464748494B4C4D4E4FFFFFFFFFFFFF0191
:1005D00002030405060708090A0B0C0E0F1011127E
:1005E000131415161718191B1C1D1E1F202122235A
:1005F00024252627292A2B2C2D2E2F303132333437
:10060000353738393A3B3C3D3E3F40414244454610
:100610004748494A4B4C4D4EFFFFFFFFFFFFFFFF8E
:1006200001020304050708090A0B0C0D0E0F101236
:10063000131415161718191A1B1C1E1F202122230C
:1006400024252627292A2B2C2D2E2F3031323435E4
:10065000363738393A3B3C3D3E40414243444546BB
:100660004748494B4C4D4E4FFFFFFFFFFFFFFFFF39
:100670000002030405060708090A0C0D0E0F1011ED
:10068000121314161718191A1B1C1D1F20212223C0
:1006900024252627292A2B2C2D2E2F303133343593
:1006A000363738393A3C3D3E3F4041424344464765
:1006B00048494A4B4C4D4EFFFFFFFFFFFFFFFFFF36
:1006C000FF01020304050708090A0B0C0D0E1011A7
:1006D000121314151618191A1B1C1D1E1F21222374
:1006E00024252627292A2B2C2D2E2F313233343541
:1006F0003637383A3B3C3D3E3F404243444546470F
:1007000048494B4C4D4EFFFFFFFFFFFFFFFFFFFF30
:10071000FF0001030405060708090B0C0D0E0F105E
:10072000121314151617181A1B1C1D1E1F21222325
:1007300024252627292A2B2C2D2E2F3132333435F0
:100740003638393A3B3C3D3E4041424344454748B8
:10075000494A4B4C4D4FFFFFFFFFFFFFFFFFFFFFDD
:10076000FFFF01020304050708090A0B0C0E0F1016
:1007700011121315161718191B1C1D1E1F202223DA
:1007800024252627292A2B2C2D2E3031323334359F
:100790003738393A3B3D3E3F404142444546474861
:1007A000494B4C4D4EFFFFFFFFFFFFFFFFFFFFFFD9
:1007B000FFFFFF010204050607080A0B0C0D0E10CF
:1007C00011121314151718191A1B1D1E1F2021238F
:1007D00024252627292A2B2C2D2F3031323335364C
:1007E0003738393B3C3D3E3F40424344454648490B
:1007F0004A4B4C4E4FFFFFFFFFFFFFFFFFFFFFFF86
:10080000FFFFFF00020304050708090A0B0D0E0F86
:1008100010121314151618191A1B1C1E1F20212341
:1008200024252627292A2B2C2D2F303132343536FA
:1008300037383A3B3C3D3E404142434546474849B4
:100840004B4C4D4EFFFFFFFFFFFFFFFFFFFFFFFF82
:10085000FFFFFFFF010203050607080A0B0C0D0F3F
:1008600010111214151617191A1B1C1D1F202122F6
:1008700024252627292A2B2C2E2F303133343536A8
:1008800037393A3B3C3E3F40414344454648494A5C
:100890004B4D4EFFFFFFFFFFFFFFFFFFFFFFFFFF7F
:1008A000FFFFFFFF00020304050708090A0C0D0EF5
:1008B0000F11121314161718191B1C1D1F202122AB
:1008C00024252627292A2B2C2E2F30313334353757
:1008D00038393A3C3D3E3F41424344464748494B04
:1008E0004C4D4EFFFFFFFFFFFFFFFFFFFFFFFFFF2E
:1008F000FFFFFFFFFF010203050607090A0B0C0EAD
:100900000F10121314151718191B1C1D1E2021225D
:1009100024252627292A2B2C2E2F30323334353705
:1009200038393B3C3D3E40414244454647494A4BAD
:100930004D4EFFFFFFFFFFFFFFFFFFFFFFFFFFFF2A
:10094000FFFFFFFFFF00010304050708090B0C0D63
:100950000E10111214151618191A1C1D1E1F212213
:1009600023252627292A2B2D2E2F313233343637B3
:10097000383A3B3C3E3F40424344454748494B4C54
:100980004D4FFFFFFFFFFFFFFFFFFFFFFFFFFFFFD9
:10099000FFFFFFFFFFFF010203050607090A0B0D1A
:1009A0000E0F111213151617191A1B1D1E1F2122C7
:1009B00023252627292A2B2D2E2F31323335363762
:1009C000393A3B3D3E3F414243454647494A4B4DFC
:1009D0004EFFFFFFFFFFFFFFFFFFFFFFFFFFFFFFD8
:1009E000FFFFFFFFFFFFFF010304050708090B0CD2
:1009F0000D0F101213141617181A1B1C1E1F21227C
:100A000023252627292A2B2D2E2F3132343536380F
:100A1000393A3C3D3E40414344454748494B4C4DA3
:100A20004FFFFFFFFFFFFFFFFFFFFFFFFFFFFFFF86
:100A3000FFFFFFFFFFFFFF000203050607090A0B88
:100A40000D0E10111214151718191B1C1E1F202231
:100A500023252627292A2B2D2E30313234353738BD
:100A6000393B3C3E3F404243454647494A4B4D4E49
:100A7000FFFFFFFFFFFFFFFFFFFFFFFFFFFFFFFF86
:100A8000FFFFFFFFFFFFFFFF010204050708090B3F
:100A90000C0E0F111213151618191B1C1D1F2022E6
:100AA00023242627292A2C2D2E303133343537386C
:100AB0003A3B3D3E3F414244454748494B4C4EFF3F
:100AC000FFFFFFFFFFFFFFFFFFFFFFFFFFFFFFFF36
:100AD000FFFFFFFFFFFFFFFF000203040607090AF5
:100AE0000C0D0F101213141617191A1C1D1F20219C
:100AF00023242627292A2C2D2F3031333436373919
:100B00003A3C3D3E404143444647494A4C4D4EFFE6
:100B1000FFFFFFFFFFFFFFFFFFFFFFFFFFFFFFFFE5
:100B2000FFFFFFFFFFFFFFFFFF0102040507080AA9
:100B30000B0D0E101112141517181A1B1D1E202153
:100B400023242627292A2C2D2F30323335363839C5
:100B50003B3C3E3F404243454648494B4C4EFFFFDD
:100B6000FFFFFFFFFFFFFFFFFFFFFFFFFFFFFFFF95
:100B7000FFFFFFFFFFFFFFFFFFFF01030406070961
:100B80000A0C0D0F1112141517181A1B1D1E202107
:100B900023242627292A2C2D2F3032333536383975
:100BA0003B3C3E3F4143444647494A4C4D4FFFFF83
:100BB000FFFFFFFFFFFFFFFFFFFFFFFFFFFFFFFF45
:100BC000FFFFFFFFFFFFFFFFFFFF00020405070815
:100BD0000A0B0D0E101213151618191B1C1E1F21BF
:100BE00023242627292A2C2D2F3132343537383A21
:100BF0003B3D3E404243454648494B4C4EFFFFFF7C
:100C0000FFFFFFFFFFFFFFFFFFFFFFFFFFFFFFFFF4
:100C1000FFFFFFFFFFFFFFFFFFFFFF0103040607CA
:100C2000090B0C0E0F1113141617191B1C1E1F2174
:100C300022242627292A2C2E2F3132343537393ACF
:100C40003C3D3F4142444547494A4C4D4FFFFFFF21
:100C5000FFFFFFFFFFFFFFFFFFFFFFFFFFFFFFFFA4
:100C6000FFFFFFFFFFFFFFFFFFFFFF00020305077E
:100C7000080A0C0D0F1012141517191A1C1D1F212C
:100C800022242627292A2C2E2F3133343637393B7C
:100C90003C3E404143444648494B4D4EFFFFFFFF19
:100CA000FFFFFFFFFFFFFFFFFFFFFFFFFFFFFFFF54
:100CB000FFFFFFFFFFFFFFFFFFFFFFFF0103040632
:100CC00008090B0D0E1012131517181A1C1D1F21E1
:100CD00022242627292A2C2E2F3133343638393B2B
:100CE0003D3E4042434547484A4C4DFFFFFFFFFF12
:100CF000FFFFFFFFFFFFFFFFFFFFFFFFFFFFFFFF04
:100D0000FFFFFFFFFFFFFFFFFFFFFFFFFF020305E6
:100D100007080A0C0E0F1113141618191B1D1F209B
:100D200022242527292B2C2E3031333537383A3CD5
:100D30003D3F4142444648494B4D4EFFFFFFFFFFB8
:100D4000FFFFFFFFFFFFFFFFFFFFFFFFFFFFFFFFB3
:100D5000FFFFFFFFFFFFFFFFFFFFFFFFFF01020499
:100D60000608090B0D0F1012141617191B1D1E2053
:100D700022242527292B2C2E3032333537393A3C83
:100D80003E4041434547484A4C4EFFFFFFFFFFFFAF
:100D9000FFFFFFFFFFFFFFFFFFFFFFFFFFFFFFFF63
:100DA000FFFFFFFFFFFFFFFFFFFFFFFFFFFF01034D
:100DB0000507090A0C0E1012131517191B1C1E200B
:100DC00022242527292B2C2E3032343537393B3D30
:100DD0003E4042444647494B4D4FFFFFFFFFFFFF58
:100DE000FFFFFFFFFFFFFFFFFFFFFFFFFFFFFFFF13
:100DF000FFFFFFFFFFFFFFFFFFFFFFFFFFFF0002FF
:100E00000406080A0B0D0F11131516181A1C1E20C4
:100E100022232527292B2D2E30323436383A3B3DDC
:100E20003F41434546484A4C4EFFFFFFFFFFFFFF4F
:100E3000FFFFFFFFFFFFFFFFFFFFFFFFFFFFFFFFC2
:100E4000FFFFFFFFFFFFFFFFFFFFFFFFFFFFFF01B0
:100E5000030507090B0C0E10121416181A1C1E1F7E
:100E600021232527292B2D2F31323436383A3C3E89
:100E70004042444547494B4D4FFFFFFFFFFFFFFFF7
:100E8000FFFFFFFFFFFFFFFFFFFFFFFFFFFFFFFF72
:100E9000FFFFFFFFFFFFFFFFFFFFFFFFFFFFFFFF62
:100EA000020406080A0C0E1012131517191B1D1F39
:100EB00021232527292B2D2F31333537393B3D3E33
:100EC00040424446484A4C4EFFFFFFFFFFFFFFFFF2
:100ED000FFFFFFFFFFFFFFFFFFFFFFFFFFFFFFFF22
:100EE000FFFFFFFFFFFFFFFFFFFFFFFFFFFFFFFF12
:100EF00001030507090B0D0F11131517191B1D1FF2
:100F000021232527292B2D2F31333537393B3D3FE1
:100F100041434547494B4DFFFFFFFFFFFFFFFFFFE9
:100F2000FFFFFFFFFFFFFFFFFFFFFFFFFFFFFFFFD1
:100F3000FFFFFFFFFFFFFFFFFFFFFFFFFFFFFFFFC1
:100F4000FF020406080A0C0E10121416181B1D1FAF
:100F500021232527292B2D2F313335383A3C3E408C
:100F6000424446484A4C4EFFFFFFFFFFFFFFFFFF92
:100F7000FFFFFFFFFFFFFFFFFFFFFFFFFFFFFFFF81
:100F8000FFFFFFFFFFFFFFFFFFFFFFFFFFFFFFFF71
:100F9000FF00030507090B0D0F121416181A1C1E6B
:100FA00021232527292B2D2F323436383A3C3E4138
:100FB000434547494B4DFFFFFFFFFFFFFFFFFFFF8B
:100FC000FFFFFFFFFFFFFFFFFFFFFFFFFFFFFFFF31
:100FD000FFFFFFFFFFFFFFFFFFFFFFFFFFFFFFFF21
:100FE000FFFF010406080A0C0F111315171A1C1E27
:100FF00020222527292B2E30323436393B3D3F41E4
:101000004446484A4C4FFFFFFFFFFFFFFFFFFFFF33
:10101000FFFFFFFFFFFFFFFFFFFFFFFFFFFFFFFFE0
:10102000FFFFFFFFFFFFFFFFFFFFFFFFFFFFFFFFD0
:10103000FFFF00020507090B0E10121517191B1EE2
:1010400020222527292B2E30323537393B3E40428E
:101050004547494B4EFFFFFFFFFFFFFFFFFFFFFF2D
:10106000FFFFFFFFFFFFFFFFFFFFFFFFFFFFFFFF90
:10107000FFFFFFFFFFFFFFFFFFFFFFFFFFFFFFFF80
:10108000FFFFFF010306080A0D0F121416191B1D9E
:1010900020222427292C2E303335373A3C3E414339
:1010A00046484A4DFFFFFFFFFFFFFFFFFFFFFFFF27
:1010B000FFFFFFFFFFFFFFFFFFFFFFFFFFFFFFFF40
:1010C000FFFFFFFFFFFFFFFFFFFFFFFFFFFFFFFF30
:1010D000FFFFFFFF020407090C0E111316181B1D5A
:1010E0001F222427292C2E313335383A3D3F4244E4
:1010F00047494C4EFFFFFFFFFFFFFFFFFFFFFFFFD2
:10110000FFFFFFFFFFFFFFFFFFFFFFFFFFFFFFFFEF
:10111000FFFFFFFFFFFFFFFFFFFFFFFFFFFFFFFFDF
:10112000FFFFFFFF010306080B0D101215171A1D14
:101130001F222427292C2E313336393B3E4043458C
:10114000484A4DFFFFFFFFFFFFFFFFFFFFFFFFFFCD
:10115000FFFFFFFFFFFFFFFFFFFFFFFFFFFFFFFF9F
:10116000FFFFFFFFFFFFFFFFFFFFFFFFFFFFFFFF8F
:10117000FFFFFFFFFF0204070A0C0F121417191CD0
:101180001F212427292C2F313437393C3E41444636
:10119000494C4EFFFFFFFFFFFFFFFFFFFFFFFFFF79
:1011A000FFFFFFFFFFFFFFFFFFFFFFFFFFFFFFFF4F
:1011B000FFFFFFFFFFFFFFFFFFFFFFFFFFFFFFFF3F
:1011C000FFFFFFFFFF000306080B0E111316191C8B
:1011D0001E212427292C2F3234373A3D3F424548DF
:1011E0004A4DFFFFFFFFFFFFFFFFFFFFFFFFFFFF76
:1011F000FFFFFFFFFFFFFFFFFFFFFFFFFFFFFFFFFF
:10120000FFFFFFFFFFFFFFFFFFFFFFFFFFFFFFFFEE
:10121000FFFFFFFFFFFF0104070A0D101215181B47
:101220001E212427292C2F3235383B3E4043464986
:101230004C4FFFFFFFFFFFFFFFFFFFFFFFFFFFFF21
:10124000FFFFFFFFFFFFFFFFFFFFFFFFFFFFFFFFAE
:10125000FFFFFFFFFFFFFFFFFFFFFFFFFFFFFFFF9E
:10126000FFFFFFFFFFFFFF0306090C0F1215181BFE
:101270001E212427292C2F3235383B3E4144474A32
:101280004DFFFFFFFFFFFFFFFFFFFFFFFFFFFFFF20
:10129000FFFFFFFFFFFFFFFFFFFFFFFFFFFFFFFF5E
:1012A000FFFFFFFFFFFFFFFFFFFFFFFFFFFFFFFF4E
:1012B000FFFFFFFFFFFFFF0104070A0D1114171ABC
:1012C0001D2023262A2D303336393C3F4346494CD6
:1012D000FFFFFFFFFFFFFFFFFFFFFFFFFFFFFFFF1E
:1012E000FFFFFFFFFFFFFFFFFFFFFFFFFFFFFFFF0E
:1012F000FFFFFFFFFFFFFFFFFFFFFFFFFFFFFFFFFE
:10130000FFFFFFFFFFFFFFFF0206090C0F13161977
:101310001D2023262A2D3033373A3D4144474A4E7B
:10132000FFFFFFFFFFFFFFFFFFFFFFFFFFFFFFFFCD
:10133000FFFFFFFFFFFFFFFFFFFFFFFFFFFFFFFFBD
:10134000FFFFFFFFFFFFFFFFFFFFFFFFFFFFFFFFAD
:10135000FFFFFFFFFFFFFFFF0004070B0E12151832
:101360001C1F23262A2D3134383B3E4245494CFF71
:10137000FFFFFFFFFFFFFFFFFFFFFFFFFFFFFFFF7D
:10138000FFFFFFFFFFFFFFFFFFFFFFFFFFFFFFFF6D
:10139000FFFFFFFFFFFFFFFFFFFFFFFFFFFFFFFF5D
:1013A000FFFFFFFFFFFFFFFFFF0205090D101418ED
:1013B0001B1F23262A2D3135383C4043474B4EFF17
:1013C000FFFFFFFFFFFFFFFFFFFFFFFFFFFFFFFF2D
:1013D000FFFFFFFFFFFFFFFFFFFFFFFFFFFFFFFF1D
:1013E000FFFFFFFFFFFFFFFFFFFFFFFFFFFFFFFF0D
:1013F000FFFFFFFFFFFFFFFFFFFF03070B0F1317A9
:101400001B1E22262A2E3235393D4145494DFFFF0C
:10141000FFFFFFFFFFFFFFFFFFFFFFFFFFFFFFFFDC
:10142000FFFFFFFFFFFFFFFFFFFFFFFFFFFFFFFFCC
:10143000FFFFFFFFFFFFFFFFFFFFFFFFFFFFFFFFBC
:10144000FFFFFFFFFFFFFFFFFFFF0105090D121662
:101450001A1E22262A2E32363A3E43474B4FFFFFB2
:10146000FFFFFFFFFFFFFFFFFFFFFFFFFFFFFFFF8C
:10147000FFFFFFFFFFFFFFFFFFFFFFFFFFFFFFFF7C
:10148000FFFFFFFFFFFFFFFFFFFFFFFFFFFFFFFF6C
:10149000FFFFFFFFFFFFFFFFFFFFFF03070C10141D
:1014A000191D21262A2F33373C4044494DFFFFFFA9
:1014B000FFFFFFFFFFFFFFFFFFFFFFFFFFFFFFFF3C
:1014C000FFFFFFFFFFFFFFFFFFFFFFFFFFFFFFFF2C
:1014D000FFFFFFFFFFFFFFFFFFFFFFFFFFFFFFFF1C
:1014E000FFFFFFFFFFFFFFFFFFFFFF01050A0E13D6
:1014F000181C21262A2F34383D42464BFFFFFFFFA0
:10150000FFFFFFFFFFFFFFFFFFFFFFFFFFFFFFFFEB
:10151000FFFFFFFFFFFFFFFFFFFFFFFFFFFFFFFFDB
:10152000FFFFFFFFFFFFFFFFFFFFFFFFFFFFFFFFCB
:10153000FFFFFFFFFFFFFFFFFFFFFFFF03080D128D
:10154000171C21262A2F34393E43484DFFFFFFFF49
:10155000FFFFFFFFFFFFFFFFFFFFFFFFFFFFFFFF9B
:10156000FFFFFFFFFFFFFFFFFFFFFFFFFFFFFFFF8B
:10157000FFFFFFFFFFFFFFFFFFFFFFFFFFFFFFFF7B
:10158000FFFFFFFFFFFFFFFFFFFFFFFFFF050A1049
:10159000151B20252B30353B40464BFFFFFFFFFF3F
:1015A000FFFFFFFFFFFFFFFFFFFFFFFFFFFFFFFF4B
:1015B000FFFFFFFFFFFFFFFFFFFFFFFFFFFFFFFF3B
:1015C000FFFFFFFFFFFFFFFFFFFFFFFFFFFFFFFF2B
:1015D000FFFFFFFFFFFFFFFFFFFFFFFFFF02080E00
:1015E00014191F252B31373C42484EFFFFFFFFFFE8
:1015F000FFFFFFFFFFFFFFFFFFFFFFFFFFFFFFFFFB
:10160000FFFFFFFFFFFFFFFFFFFFFFFFFFFFFFFFEA
:10161000FFFFFFFFFFFFFFFFFFFFFFFFFFFFFFFFDA
:10162000FFFFFFFFFFFFFFFFFFFFFFFFFFFF050BB8
:1016300012181E252B32383E454BFFFFFFFFFFFFE0
:10164000FFFFFFFFFFFFFFFFFFFFFFFFFFFFFFFFAA
:10165000FFFFFFFFFFFFFFFFFFFFFFFFFFFFFFFF9A
:10166000FFFFFFFFFFFFFFFFFFFFFFFFFFFFFFFF8A
:10167000FFFFFFFFFFFFFFFFFFFFFFFFFFFF01086F
:101680000F161D242C333A41484FFFFFFFFFFFFF89
:10169000FFFFFFFFFFFFFFFFFFFFFFFFFFFFFFFF5A
:1016A000FFFFFFFFFFFFFFFFFFFFFFFFFFFFFFFF4A
:1016B000FFFFFFFFFFFFFFFFFFFFFFFFFFFFFFFF3A
:1016C000FFFFFFFFFFFFFFFFFFFFFFFFFFFFFF0524
:1016D0000C141C242C343C444BFFFFFFFFFFFFFF86
:1016E000FFFFFFFFFFFFFFFFFFFFFFFFFFFFFFFF0A
:1016F000FFFFFFFFFFFFFFFFFFFFFFFF01020303ED
:1017000004040505060607080809090A0A0B0B0C5C
:101710000D0D0E0E0F0F10101112121313141415BD
:1017200015151717181819191919191C1C1D1D1D25
:101730001D1D1D1D212121214C4C4B4B4A4A49495D
:101740004848474746454544444343424241414057
:10175000403F3E3E3D3D3C3C3B3B3A3A39393937D0
:1017600037363635353434343434313130302F2F48
:101770002F2F2F2F00B0034000B00B4000000000BF
:101780000000000000000000000000000000000059
:10179000000000000000000000004E6F6E4D6173FD
:1017A0006B61626C6500000000486172644661759F
:1017B0006C740000000000004D656D4D616E616746
:1017C000656D656E7400004275734661756C7400DA
:1017D00000000000000055736167654661756C7418
:1017E00000000000000000000000000000000000F9
:1017F00000000000000000000000000000000000E9
:1018000000000000000000000000000000000000D8
:1018100000000000000000000000000000000000C8
:1018200000535643616C6C00000000000000000093
:1018300044656275674D6F6E69746F7200000000D9
:1018400000000000000000000000000000005065E3
:101850006E645356000000000000000000537973CE
:101860005469636B0000000000000000444D4130EB
:101870000000000000000000000000444D41310065
:1018800000000000000000000000444D4132000054
:10189000000000000000000000444D413300000043
:1018A0000000000000000000444D41340000000032
:1018B00000000000000000444D4135000000000021
:1018C000000000000000444D413600000000000010
:1018D0000000000000444D413700000000000000FF
:1018E00000000000444D41380000000000000000EE
:1018F000000000444D4139000000000000000000DD
:101900000000444D413130000000000000000000A4
:1019100000444D4131310000000000000000000093
:10192000444D41313200000000000000000000443E
:101930004D41313300000000000000000000444D24
:1019400041313400000000000000000000444D411F
:10195000313500000000000000000000444D415FF0
:101960004572726F720000000000004D434D000090
:10197000000000000000000000004654464C00003B
:10198000000000000000000000526561645F436FCA
:101990006C6C6973696F6E004C56445F4C5657000F
:1019A000000000000000004C4C5700000000000048
:1019B0000000000000005761746368646F670000F6
:1019C0000000000000524E47000000000000000030
:1019D0000000000049324330000000000000000019
:1019E0000000004932433100000000000000000008
:1019F00000005350493000000000000000000000CB
:101A000000535049310000000000000000000000B9
:101A10005350493200000000000000000000004365
:101A2000414E305F4F525F4D425F627566004341E9
:101A30004E305F4275735F4F666600000043414E53
:101A4000305F4572726F72000000000043414E30FB
:101A50005F54785F5761726E696E6743414E305FC5
:101A600052785F5761726E696E6743414E305F57BF
:101A7000616B655F55700000005265736572766535
:101A8000643531000000000052657365727665644C
:101A90003532000000000043414E315F4F525F4D30
:101AA000425F6275660043414E315F4275735F4F1E
:101AB000666600000043414E315F4572726F7200EE
:101AC0000000000043414E315F54785F5761726EF1
:101AD000696E6743414E315F52785F5761726E693C
:101AE0006E6743414E315F57616B655F5570000013
:101AF0000052657365727665643539000000000038
:101B000052657365727665643630000000000055DA
:101B1000415254305F52585F545800000000554104
:101B20005254305F455252000000000000554152AF
:101B300054315F52585F54580000000055415254D0
:101B4000315F4552520000000000005541525432AE
:101B50005F52585F54580000000055415254325FA4
:101B600045525200000000000055415254335F526C
:101B7000585F54580000000055415254335F45529D
:101B80005200000000000055415254345F52585F2B
:101B900054580000000055415254345F45525200E1
:101BA000000000000055415254355F52585F5458B0
:101BB0000000000055415254355F4552520000006C
:101BC000000000414443300000000000000000001D
:101BD000000041444331000000000000000000000C
:101BE00000434D50300000000000000000000000E5
:101BF000434D503100000000000000000000004391
:101C00004D5032000000000000000000000046546B
:101C10004D30000000000000000000000046544D60
:101C200031000000000000000000000046544D326A
:101C30000000000000000000000000434D540000C0
:101C400000000000000000000000525443000000AB
:101C500000000000000000000052657365727665A8
:101C60006438330000000000504954300000000088
:101C70000000000000000050495431000000000046
:101C80000000000000005049543200000000000035
:101C90000000000000504954330000000000000024
:101CA000000000005044423000000000000000002E
:101CB000000000555342300000000000000000000A
:101CC000000055534244434400000000000000005F
:101CD00000454E45545F313538385F54696D657243
:101CE000454E45545F5472616E736D6974000045D2
:101CF0004E45545F52656365697665000000454E48
:101D000045545F4572726F72000000000049325303
:101D10003000000000000000000000005344484371
:101D200000000000000000000000004441433000BB
:101D300000000000000000000000444143310000AA
:101D40000000000000000000005453493000000073
:101D500000000000000000004D43470000000000AC
:101D6000000000000000004C5054696D65720000D6
:101D700000000000000052657365727665643130C2
:101D80003200000000504F5254410000000000009B
:101D900000000000504F52544200000000000000BC
:101DA000000000504F5254430000000000000000AB
:101DB0000000504F5254440000000000000000009A
:101DC00000504F5254450000000000000000000089
:101DD00052657365727665643130380000000052D8
:101DE00065736572766564313039000000005265B4
:101DF000736572766564313130000000005265739E
:101E0000657276656431313100000000526573659A
:101E1000727665643131320000000052657365727C
:101E20007665643131330000000052657365727667
:101E30006564313134000000005265736572766567
:101E40006431313500000000526573657276656457
:101E50003131360000000052657365727665643179
:101E60003137000000005265736572766564313168
:101E7000380000000052657365727665643131394F
:101E800000000000008003400090034000800B40F1
:101E900000F00F4040F00F4080F00F40C0F00F40C6
:101EA00000F10F400060064000700640F0000A1D7F
:101EB0003000180032001801600018186400181A69
:101EC0006E00181F780013187D00131A8200131C6F
:101ED0008C000E1296000E15A0000E18AA000E1B04
:101EE000B4000E1EC8000C1CE1000B1EFA000A1FF5
:101EF000000109080090044000A0044000B0044024
:101F000000C0044000D0044000A0064000B00640DD
:101F100000C0064000D0064000A00E4000B00E40B9
:101F20000100010001000100210821082108210809
:101F3000210821082108210821083FF80008000095
:101F400010401040104010403E4022604250424835
:101F5000A4441444084008401040204040408040C1
:101F60000040204010A010A001100208F40611103B
:101F700011201140118011001504190410FC0000FB
:101F80001000100011FC10001000FC0013FE1020C7
:101F90001020104010401C88E10443FE01020000A4
:101FA0006A6B6C6D6E090F00505152530DC11100D8
:101FB00009030CD012401520173F185019031A7846
:101FC0003200A00A63E0ACFF650C660067002914CC
:101FD0002C1E2A007E0C7F16802A814E8261836F20
:101FE000847B8586868E879788A489AF8AC58BD7A0
:101FF0008CE88D204A00491347084B144C174605BE
:1020000022992303A6049B009C3CAB069E119F02D1
:10201000020401018C3CFF1FDC3CFF1F8C3CFF1FB6
:102020008C3CFF1F000000008C3CFF1F00000000E4
:102030004C20FF1F3820FF1F0000000000000000A0
:102040000000000000000000000000000000000090
:102050000000000000000000ACC90000ACC9000096
:10206000ACC90000ACC90000ACC90000ACC900009C
:10207000ACC90000FFFFFFFFFFFFFFFFAEC900007C
:10208000ACC90000ACC90000FFFFFFFFFFFF00006C
:102090005A05800080000132012210F01F018A40A1
:1020A000DFF8241803005BB25B0941F82320704776
:1020B00010B5002401F016FCC10703D50121DFF89B
:1020C0000C281170810703D50121DFF80028517019
:1020D000410703D50121DFF8F4279170010703D5EB
:1020E0000121DFF8E827D17010BD2DE9FE4F00F087
:1020F00049FB002000F060FB002000F07EFBDFF8D1
:10210000D047DFF8D067DFF8D077009700235FF083
:102110007A523100200001F031FCDFF8C0570097FF
:1021200000235FF07A523100280001F027FC01F013
:10213000E2FDDFF8AC0700686421484301F023FFAB
:102140000FF22D510F2001F054FF01F0B5FBFFF706
:10215000AFFFDFF87807007801282BD1DFF884077C
:102160000068019001F05CFF4FF6FF76002332001B
:10217000DFF87417019802F0C4F8DFF870073C210B
:10218000418050210180DFF8B80C02F07DF9002376
:102190003200DFF85C17019802F0B3F86E20ADF85A
:1021A00006000020009033000422DFF84817019851
:1021B00002F03AFB0FF29541672001F01AFF0FF28F
:1021C000B541102001F015FF0020DFF82C174880E2
:1021D000DFF828070168002002F05CFB0FF29D4148
:1021E000542001F006FF042002F092FB072002F0C9
:1021F000EFFB00F057FB00F021FB00F04BFB44200D
:10220000FFF74AFF00F021FB5FF47A31002002F073
:10221000E5FC02F0F9FDDFF8E8060178012901D1BB
:1022200000210170DFF8DC663078012844D1DFF846
:10223000D8060178DFF8D42611604178DFF8D0267F
:1022400011608178DFF8CC261160C078DFF8C816FD
:102250000860DFF8C806006801280DD1DFF8C00665
:10226000D0E900010022DFF8BC3602F031FE03D8CD
:102270000021032002F06CFB01F0D1FA0020307045
:10228000DFF8A4060168491C0160DFF8A0660021A0
:1022900071805121318000234FF6FF720168306850
:1022A00002F08AF8DFF824060078012801D100F056
:1022B0007FFB012002F06DFBDFF874060178012935
:1022C00001D100210170DFF86C060178012901D1EC
:1022D00000210170DFF860663078012840F0AC81A1
:1022E00001F069FA0020307002F09FFD0022DFF853
:1022F0004C36200001F04AFB0022DFF8403628006F
:1023000001F044FB0020019000200090DFF80C66F3
:102310003068012841D1DFF80806D0E90001002229
:10232000DFF8003602F0D4FD37D80021032002F098
:102330000FFB40F2645000F09DFA0A2000F03CFAD6
:102340000A2000F05AFA3068401C3060DFF8F0755F
:10235000386802F0D4FDD0F1280002F0D9FD020067
:102360000B00200001F012FB386802F0C8FD02F0FB
:10237000CFFDDFF8D025DFF8D03502F0DBFD0022FD
:10238000DFF8B83502F0A8FE02000B00280001F0CB
:10239000FDFA40F2EE2001F0EAFD3068002863D13A
:1023A000DFF868050168B42909DBDFF864150968FE
:1023B000B42904DBDFF860150968B42919DA01686B
:1023C000B42909DBDFF848150968B42904DBDFF814
:1023D00044150968B4290CDA0068FA2809DADFF82C
:1023E00030050068FA2804DADFF82C050068FA28BE
:1023F0003ADB4FF4AF6000F03DFA0A2000F0DCF960
:102400000A2000F0FAF93068401C3060DFF83065CF
:10241000306802F074FDD0F1280002F079FD02006E
:102420000B00200001F0B2FA306802F068FD02F003
:102430006FFDDFF81025DFF8103502F07BFD00227C
:10244000DFF8F83402F048FE02000B00280001F02B
:102450009DFA40F2EE2001F08AFD052000F0ACF973
:10246000052000F0CAF995E0DFF8A0040168BE2954
:102470000CDBDFF89C140968BE2907DBDFF8981431
:102480000968BE2902DB316801290FD00068BE2827
:1024900010DBDFF87C040068BE280BDBDFF8740477
:1024A0000068BE2806DB3068012803D13068401C74
:1024B00030606FE0DFF86804D0E900010122DFF846
:1024C0008C3402F005FD10D9DFF884040068DFF8D1
:1024D000841402F0BFFE08D9DFF86C0D006802F02A
:1024E000CBFE02F00CFD0B2848DBDFF854643068AB
:1024F000002821D4306802F002FDD0F16E0002F015
:1025000007FD02000B00200001F040FA306802F0E5
:10251000F6FC02F0FDFC5FF03332DFF83C3402F0F1
:1025200009FD0022DFF8343402F0D6FD02000B0072
:10253000280001F02BFA2DE0306802F0E0FC02F0F8
:10254000E7FC5FF03332DFF8103402F0F3FC0022D6
:10255000DFF8083402F0C0FD02000B00200001F09B
:1025600015FA306802F0CBFCD0F16E0002F0D0FC1E
:1025700002000B00280001F009FA0BE00022DFF84E
:10258000E033200001F002FA0022DFF8D433280003
:1025900001F0FCF9DFF8CC03006802F0B9FC02009E
:1025A0000B00200001F0F5F902F07CFE8346DFF815
:1025B000B863316805209BFBF0F041183160DFF80B
:1025C000AC03006802F0A4FC02000B00280001F03C
:1025D000E0F902F067FE8246DFF89473396805205F
:1025E0009AFBF0F041183960DFF88893DFF88883B0
:1025F000CDF80480CDF80090306802F089FC02002C
:102600000B00200001F08FF902F04CFE3060CDF895
:102610000480CDF80090386802F07AFC02000B00CC
:10262000280001F080F902F03DFE3860306800F0CB
:10263000C3F8386800F0E1F8D048017801297FF448
:10264000EAAD00210170E6E50000000038B5CC4994
:1026500008680028FBD00D685FF0FF3008601D247B
:102660002800E040C00701D501F042FF31BD000065
:102670007047000080B501F05BFF01BD10B5C14C93
:102680002068401C20600120BC4908700A20216895
:10269000226892FBF0F200FB1210002804D102F035
:1026A00038FA0120A449087014202168226892FB9E
:1026B000F0F200FB1210002819D101209D4908708A
:1026C0000021852002F067FE00F0BFF8012003F032
:1026D0001FF94042A3490860012003F030F90220AD
:1026E00003F016F9A1490860022003F028F932200E
:1026F0002168226892FBF0F200FB1210002802D140
:1027000001208B49087064202168226892FBF0F256
:1027100000FB1210002802D101207A4908702068BD
:10272000B0F57A7F0BDB0120754908709648016887
:10273000491C016000202060002002F02AF9934823
:102740000168022903DB0168491E016009E0016894
:10275000012906D10168491E01600121112002F002
:102760001AFE8B48016851F00101016010BD80B56F
:102770000121852002F00FFE8648016851F0010119
:10278000016001BD10B542F2107432232200022113
:10279000002002F005FF322322000321002002F076
:1027A000FFFE32220121072002F09AFD3222012190
:1027B000082002F095FD10BD10B50400002C0DD4CA
:1027C000652C01DB642004000021072002F0E3FDFA
:1027D00022000221002002F0A5FF0DE06434652CE8
:1027E00001DB642004000121072002F0D4FD220057
:1027F0000221002002F096FF10BD10B50400002C4D
:102800000DD4652C01DB642004000021082002F0B7
:10281000C2FD22000321002002F084FF0DE0643499
:10282000652C01DB642004000121082002F0B3FDC7
:1028300022000321002002F075FF10BD80B50122A7
:102840000121852002F04CFD01BD80B55248018870
:102850002A48006841434FF47A7091FBF0F101205F
:1028600002F018F84D49552001F0C3FB4520FFF751
:1028700013FC01BD4A490A68824202DA096808006D
:1028800005E048490A68904201DA096808004249AF
:102890000880704780B5012002F0B6FF022002F0E8
:1028A000B3FF01BD80B501220121112002F018FD06
:1028B00001BD80B53C4803683C4A0C4801680E489D
:1028C000006801F087FA01BD00E100E03C38FF1F1D
:1028D0006822FF1FCDCC4C3F0AD7A33D9022FF1F9B
:1028E0004C3CFF1F9CC9000070C900002404FF1F5E
:1028F00080C90000181FFF1F3838FF1F543CFF1FFE
:10290000E93CFF1FE83CFF1FB822FF1F2038FF1FD4
:102910002438FF1F2838FF1F2C38FF1F3038FF1FB7
:102920005022FF1F000024C0F437FF1F2804FF1FA0
:10293000E73CFF1FE63CFF1FE53CFF1F0000444053
:102940000838FF1F9A9999999999C93F00004E40FC
:102950001438FF1F010020413333D33F00805B4018
:1029600000806640FC37FF1F1838FF1F0038FF1F2C
:102970001C38FF1F00002042000020C2E43CFF1F63
:10298000A0900440F037FF1F3438FF1FF837FF1FB7
:102990000C7103401C7103408820FF1F6F2700004B
:1029A0002C04FF1F3004FF1F2004FF1F3025FF1FD2
:1029B0002DE9F84FADF5645D9EB001F0C2FDDFF882
:1029C000587C4FF41672DFF87814380002F0DAFF02
:1029D00050243C208DF8080000205FF000095FF0D3
:1029E0003908B8F13C0F10DA11208146B9F13F0FD8
:1029F00008DA2000C0B200FB0890AA21395419F16E
:102A00000109F3E718F10108EBE7012542F2B8608C
:102A100068444FF4965103F001F841F2F8306844ED
:102A2000DFF8F81B4FF4965203F00CF84EA84FF461
:102A3000965102F0F3FF9DF80810491E2000C0B225
:102A40004143785C81280BDB42F2B86169449DF810
:102A500008205020424301EB020000F8505C6D1C3E
:102A600001262000C0B286423BDA9DF80800401ED5
:102A70002100C9B201FB0060385C81282FDB9DF882
:102A80000800401E2100C9B201FB0060384410F864
:102A9000010C002816D0502042F2B86169449DF81C
:102AA000082042431144314442F2B8626A449DF81E
:102AB000083000FB03F01044304410F8510C01F8CA
:102AC000500C0CE042F2B86169449DF80820502097
:102AD000424301EB0200304400F8505C6D1C761C50
:102AE000BFE79DF80810891E002900F1D980200059
:102AF000C0B200FB01F0385C81281EDB4A1C2000BC
:102B0000C0B24243B85C81280FDB502042F2B86269
:102B10006A4400FB01F31A4492F8502042F2B86371
:102B20006B4400FB01F01A5407E042F2B8606844BD
:102B3000502202FB01F285546D1C01202200D2B20A
:102B4000904246DA2200D2B202FB0102BA5C812A2C
:102B50003DDB4A1C2300DBB203FB0202BA5C812A84
:102B600011DB502242F2B8636B4402FB01F633449E
:102B700042F2B8666E4402FB01F23244024492F81B
:102B800050201A5423E02200D2B202FB01023A4440
:102B900012F8012C812A11DB502242F2B8636B44F7
:102BA00002FB01F6334442F2B8666E4402FB01F2C6
:102BB0003244024412F8012C1A5408E042F2B8627E
:102BC0006A44502303FB01F31A4415546D1C401C46
:102BD000B4E72200D2B2521E012A2DDB502342F26A
:102BE000B860684403FB01F63044805C002821D0C3
:102BF00042F2B860684403FB01F63044805C42F264
:102C0000B8666E4403FB01FC6644164416F8016C7A
:102C1000B0420FD242F2B860684403FB01F6304480
:102C2000104442F2B8666E4403FB01F333449B5CEC
:102C300000F8013C521ECFE700262000C0B2401E23
:102C400086422BDA502242F2B860684402FB01F35C
:102C50001844805D00281FD042F2B860684402FB2F
:102C600001F31844805D42F2B8636B4402FB01FC3F
:102C7000634433445B7898420ED242F2B8606844B1
:102C800002FB01F31844304442F2B8636B4402FB88
:102C900001F21A44925D4270761CCEE7491E23E78A
:102CA0000DF5405090F8FF088DF80C0000208DF8CD
:102CB0000A005FF000089DF8080080455BDA0020FC
:102CC00006002000C0B2864252DA5021DFF85009D7
:102CD00001FB08F21044805D8DF80A009DF80A009F
:102CE000512809DB41F2F83068442100C9B201FBE8
:102CF00008616422425422E09DF80A0050281EDA3E
:102D000041F2F8326A442300DBB203FB0863A446B5
:102D10005FFA8CFC9DF80A000CFB080C17F80C00FD
:102D2000D0544EA801FB08F2104442F2B8626A4443
:102D300001FB08F111449DF80A20895C81550A20A5
:102D400098FBF0F100FB1180002806D00A2096FBCA
:102D5000F0F100FB1160002808D141F2F83068441E
:102D60002100C9B201FB0861C8224254761CA8E7C1
:102D700018F101089FE712A83C2102F04FFE200045
:102D8000C0B202F0A3FE02000B000020DFF894188E
:102D900002F0D0F802000B000020DFF88C1802F0DF
:102DA0009BF902F07FFA8DF848003FA83C2102F021
:102DB00035FE8DF8FC4030A83C2102F02FFE21A802
:102DC0003C2102F02BFE9DF808008DF80900002040
:102DD0008DF80B00002008909DF808707F1E002FD2
:102DE00000F11D810DF1FC0808F8074001200600E4
:102DF0002000C0B2401E864224DA4EA8502101FBBA
:102E000007F10844805D9DF80C10884215D19DF8AB
:102E10000900874202DA38008DF8090018F8070027
:102E2000864201DA08F8076030A8C15DB14200DAD5
:102E3000C65521A8C15D491CC155761CD8E700BF05
:102E4000D822FF1F0DF1840A1AF80700002800F0AD
:102E5000E480DFF8D807C15D18F8072091424AD313
:102E600030A9CA5DDFF8C837DB5D9A4243D29DF8CE
:102E700008200F3A97423EDA21A8384440780AF8F1
:102E80000700CA5D1AF80700121A521C08F807203A
:102E9000232F04DA9DF80B00401E8DF80B000DF176
:102EA0004809C85D02F012FECDE900011AF80700DA
:102EB00002F00CFE5FF06632DFF8783702F03AF885
:102EC00002000B00DDE9000102F00EFE0022DFF837
:102ED000543702F001F902F0E5F909F8070041F270
:102EE000F83169442200D2B219F8070002FB070248
:102EF0001E20885476E0C05D18F80710884249D239
:102F000030A9C85DDFF82827D25D904242D39DF8F2
:102F100008000F3887423DDA21A8384440780AF883
:102F2000070018F807201AF807008218501EC85525
:102F3000232F04DA9DF80B00401C8DF80B000DF1D7
:102F4000480918F8070002F0C1FDCDE900011AF8A0
:102F5000070002F0BBFD5FF06632DFF8D83601F003
:102F6000E9FFDDE9002302F0B7F80022DFF8B4360C
:102F700002F0B2F802F096F909F8070041F2F831D0
:102F800069442200D2B219F8070002FB070296201A
:102F9000885427E05FF0000ADFF888B60DF1480991
:102FA00018F8070030A9C95D081801F0B1FF020048
:102FB0000B005046594601F0BDFF02000B00504681
:102FC000594602F089F802F06DF909F8070041F25C
:102FD000F83169442200D2B219F8070002FB070257
:102FE0009620885441F2F83169442200D2B218F890
:102FF000070002FB0702462088542200D2B230A804
:10300000C05D02FB070246208854142F05DB089898
:1030100012A9C95D2739081808907F1EDFE60898B5
:1030200001F076FF02000B000020DFF80C1601F023
:1030300081FF804689469DF808009DF80910401AD6
:1030400001F066FF0022DFF8F03502F045F80200DB
:103050000B004046494602F0B9FD02F0DBFE079046
:103060005FF000095FF000089DF809000F2818DAEA
:103070005FF02D0B9DF857009DF8561051FA80F027
:103080009DF8581050FA81F0753801F041FFDFF8D3
:10309000AC25DFF8AC3501F04DFF02F003F98246B4
:1030A00026E09DF808009DF809B0B0EB0B0BBBF1D2
:1030B000020B12A89DF809100844407812A99DF847
:1030C00009201144897851FA80F012A99DF809204D
:1030D0001144C97850FA81F0753801F019FFDFF812
:1030E0005C25DFF85C3501F025FF02F0DBF8824655
:1030F0005FF00008DFF84C95504601F009FF002210
:103100005FF0804301F016FF02000B004046494685
:1031100001F010FFCDE900010AFB0AF00BFB0B00E8
:1031200001F0F6FE0022DFF8103501F003FF020087
:103130000B00DDE9000102F049FD02F06BFE42499F
:1031400008600A2004909DF878009DF87A1051FAE2
:1031500080F09DF87C1050FA81F09DF8791050FABB
:1031600081F09DF87B1050FA81F0C33801F0D0FE59
:10317000DFF8D424DFF8D43401F0DCFE02F092F85A
:103180000690069801F0C4FE00225FF0804301F033
:10319000D1FE02000B004046494601F0CBFECDE9CE
:1031A00000010498049A069B06994B4302FB0030E9
:1031B00001F0AEFE0022DFF8803401F0BBFE020019
:1031C0000B00DDE9000102F001FD02F023FEDFF853
:1031D00080140860002009909DF808009DF80910EF
:1031E000401A01F095FE0022DFF8683401F074FF08
:1031F0000022DFF8303401F09DFE02F053F8049015
:10320000079802F03BFE00225FF0804301F092FE3F
:1032100002000B004046494601F08CFE804689467C
:1032200004980499484302F04DFE009007990798CE
:1032300002F05AFE009902F0C3FE02F01FFE0022C7
:10324000DFF8F43302E000BF1038FF1F01F072FE18
:1032500002000B004046494602F0B8FC02F0DAFDDD
:103260008146DFF8F403006802F006F88046B8F102
:10327000010F0DDBDFF8E4030021018046214180CE
:1032800000234FF6FF724146006801F095F80FE009
:10329000DFF8C803002101805621418000234FF64A
:1032A000FF725FF0FF3101FB08F1006801F084F864
:1032B000484601F0E1FF8346BBF1010F0DDBDFF86B
:1032C0009C03282101804621418000234FF6FF7294
:1032D0005946006801F070F80EE0E04828210180AE
:1032E0005621418000234FF6FF725FF0FF3101FB52
:1032F0000BF1006801F060F8DFF854A3DAF8000081
:1033000001F0BAFF0590059801280CDBD348512144
:1033100001804621418000234FF6FF720599006825
:1033200001F04AF812E0DFF834C35120ACF8000095
:103330005620ACF8020000234FF6FF7205995FF0AB
:10334000FF304143DCF8000001F036F8DFF8088375
:10335000D8F8000002F092FD5FF06632C04B01F039
:10336000E9FD02F057FDC8F80000484602F086FD6E
:103370005FF03332BB4B01F0DDFD02F04BFD0990F5
:10338000DFF8E4B2B948006802F078FDCDE9000149
:10339000D8F8000002F072FD0022B54B01F0CAFD22
:1033A00080468946099802F069FD00229D4B01F094
:1033B000C1FD42464B4601F08FFE80468946DAF851
:1033C000000002F05BFD5FF066329A4B01F0B2FD47
:1033D00042464B4601F080FEDDE9002301F0AAFDE4
:1033E00001F060FFCBF80000DFF88892DBF8000006
:1033F00001F08EFDD9E9002301F06EFE82468B4676
:10340000504659469C4AD2E9002302F06DFBCDE9B3
:103410001001CDE90CAB9848D0E9002300205FF003
:10342000804101F087FD02000B005046594602F032
:103430005BFB924AD2E9002301F04EFECDE90E017A
:103440008F48006802F01AFD02000B0050465946F2
:1034500002F0BCFB00228B4B01F06CFD02F06BFE16
:1034600001F020FF01F04BFDD0F1010002F02AFD38
:103470008549096802F038FD0A908448006802F026
:10348000FDFCDDE9102301F055FDCDE900010A98AE
:1034900002F0F4FCDDE90C2301F04CFDDDE9002332
:1034A00001F01AFECDE900017948006802F0E6FC5F
:1034B000DDE90E2301F03EFDDDE9002301F00CFE05
:1034C000CDE90001D9E90001DDE9002302F00CFBA0
:1034D000C9E90001DFF8BC81DDE9000100226E4B83
:1034E00002F074FB01F0DEFEC8F80000D8F800001E
:1034F0000F2803DB0F20C8F8000008E0D8F8000010
:1035000010F10E0F03DA7FF00E00C8F80000D9E9C1
:1035100000010022614B02F037FF04D200205F4916
:10352000C9E900010AE0D9E9000101225C4B01F080
:10353000CFFC03D800205A49C9E900014E4AD2E91C
:1035400000014E4BC3E90001C2E900ABD9E90023F9
:103550000020544901F0C0FD01F0A4FEFFF78AF9F4
:103560005FF000089DF8080080454FDA0020060053
:103570002000C0B2864246DA4EA8502101FB08F175
:103580000844805D9DF80C10884209D141F2F83062
:1035900068442100C9B201FB0861FF22425417E0D0
:1035A00041F2F8376F44A1465FFA89F909FB0869CF
:1035B0002000C0B200FB0860385C02F087FA5FF0C0
:1035C0003332394B01F0B6FC01F06CFE07F809000C
:1035D0009DF80900804508D141F2F8306844210087
:1035E000C9B201FB08616422425441F2F8316944D6
:1035F0002200D2B212A810F8080002FB0802B42080
:103600008854761CB4E718F10108ABE70DF5645D4A
:103610001FB0BDE8F08F00003025FF1F189A000092
:103620003404FF1F0000E03F0000F0BFF416FF1F4E
:103630003017FF1F6666E63F0000F03FBEA4315A18
:103640004755D53F00408F409A9999999999C93F1C
:103650001438FF1F0000F83F1038FF1F2804FF1F19
:103660006666F23F3333F33F0438FF1F1004FF1F39
:103670000000D03F5022FF1F5822FF1F6022FF1F73
:103680001C04FF1F000018401804FF1F1404FF1F34
:103690000C38FF1F0838FF1F00000440008061C085
:1036A0000080614000C097403333D33F38B56E4C43
:1036B0006E4D6B782A786E49200002F07DFE220064
:1036C0000021002000F0F2FAEB78AA786949200086
:1036D00002F072FE22001021002000F0E7FA664896
:1036E00002686649200002F067FE220020210020C7
:1036F00000F0DCFA5AA1200002F05EFE2200302128
:10370000002000F0D3FA00F0BCF931BD70B5564C82
:103710005B4D2A685B49200002F04EFE220000212A
:10372000002000F0C3FA584E32685849200002F0D9
:1037300043FE22001021002000F0B8FA306829680A
:1037400090FBF1F25249200002F036FE22002021C7
:10375000002000F0ABFA43A1200002F02DFE220071
:103760003021002000F0A2FA00F08BF970BD10B5F6
:103770003D4C484802684849200002F01DFE2200E6
:103780000021002000F092FA4448026844492000D9
:1037900002F012FE22001021002000F087FA4149B9
:1037A000200002F009FE22003021002000F07EFA05
:1037B00000F067F910BD10B53B4C200001F07FF917
:1037C00001282BD194F9000000280ED194F90100B2
:1037D00001280AD135480178032903DA0178491C08
:1037E000017014E00021017011E094F9000001283B
:1037F0000DD194F90100012809D12C49087800283D
:1038000003D00878401E087001E00320087094F986
:10381000012094F90010264802F0EEFD10BD38B5E5
:10382000224C244D28782178884201D000F06BF991
:103830002078002805D0022809D005D3032809D014
:103840000AE0FFF733FF07E0FFF760FF04E0FFF750
:103850008EFF01E0FFF72DF82078287031BD0000C1
:103860005030000050310000C422FF1FB822FF1F5B
:10387000E0C80000F0C80000C022FF1F00C900001F
:103880003438FF1F10C90000F437FF1F20C90000A3
:1038900030C90000FC37FF1F40C900000038FF1F7F
:1038A00050C9000060C90000E03CFF1FE23CFF1F60
:1038B00058C50000E33CFF1F80B5002200216520B1
:1038C00001F00EFD00220021642001F009FD00221C
:1038D0000021632001F004FD00220021622001F09C
:1038E000FFFC01BD10B50024652001F0ACFD0028EF
:1038F00001D154F00804642001F0A5FD002801D195
:1039000054F00404632001F09EFD002801D154F01E
:103910000204622001F097FD002801D154F0010457
:103920002000C0B210BD2DE9F047060014001D00B4
:10393000089FDDF82480BA46C146484602F09EFA48
:1039400002000B002000290002F01EFD05D24846AF
:1039500002F094FA04000D000CE0504602F08EFADA
:1039600022002B0002F010FD04D2504602F086FA2D
:1039700004000D0020002900BDE8F08710B4019C70
:10398000016042608360C46010BC7047C0E90423DA
:1039900070472DE9F84F0CB484B08046D8E9040193
:1039A000DDE9042302F0A0F804000D002000290046
:1039B000D8E9062302F098F882468B46CDE9024505
:1039C000D8E9062300205FF0804101F0B3FA02003D
:1039D0000B002000290002F087F8D8E9082301F045
:1039E0007BFB06000F00D8F80490D8F8000002F026
:1039F00045FA52465B4601F09DFACDE90001484682
:103A000002F03CFADDE9022301F094FADDE900233B
:103A100001F062FBCDE90001D8F8080002F02EFAAF
:103A200032003B0001F086FA02000B00DDE90001E4
:103A300002F05AF8D8E90623C8E90823C8E9064580
:103A400007B0BDE8F08F30B4002513E050F8042B28
:103A5000D30744BFA9F101039A18091F042942F8AA
:103A6000045BFAD213468C0744BF15809B1CC90720
:103A700048BF1D7050F8041B0029E7D130BC7047C7
:103A8000704738B500252800C0B2082823DA002185
:103A9000B5F15000C0B200F01FF80021002000F086
:103AA0001BF80021102000F017F80020040020006F
:103AB000C0B280280DDA0121DFF840042200D2B222
:103AC00000EBC2002A00D2B2805C00F005F8641C52
:103AD000EDE76D1CD7E731BD38B504000D002800B7
:103AE000C0B2002807D02300DBB240223C210120D5
:103AF00002F036FD06E02300DBB200223C2101206B
:103B000002F02EFD31BD38B500252800C0B20828CE
:103B100013DA002004002000C0B280280BDADFF89E
:103B2000DC032100C9B200EBC1002900C9B20022A8
:103B30004254641CEFE76D1CE7E7FFF7A2FF31BDBD
:103B4000F0B5030000241800C0B2802803DA080092
:103B5000C0B2402800DB43E00800C0B2082590FB5B
:103B6000F5F5D5F107050800C0B2082790FBF7F678
:103B700007FB16060120D6F1070710FA07F7100019
:103B8000C0B2002816D0DFF874031C00E4B200EBCA
:103B9000C404AC465FFA8CFC9E465FFA8EFE00EBD6
:103BA000CE00AE465FFA8EFE10F80E00384304F8E1
:103BB0000C0015E0DFF844031C00E4B200EBC40481
:103BC000AC465FFA8CFC9E465FFA8EFE00EBCE00A0
:103BD000AE465FFA8EFE10F80E00B84304F80C00F3
:103BE000F0BD2DE9F84F05000E001F000A9CB246FB
:103BF000B2F120008DF800005FF0000B584639004C
:103C0000C0B2C9B288424FD23800C0B20C280CD121
:103C1000DFF8EC129DF800200C20424301EB02007B
:103C20005946C9B2405C804609E0DFF8D8029DF8E9
:103C30000010090108445946C9B2405C8046002082
:103C400081464846C0B208282BDA5FEA086008D5EA
:103C50002200D2B23100C9B22800C0B2FFF770FF13
:103C60000DE02000C0B2002801D1012200E00022B6
:103C7000D2B23100C9B22800C0B2FFF761FF5FEADB
:103C80004808761C3100C9B25046C0B2091A380043
:103C9000C0B2814202D156466D1C02E019F1010901
:103CA000CFE71BF1010BA9E7BDE8F18F7CB504005C
:103CB0000E001500287800281CD02000C0B27B28F8
:103CC00002DB0020040010363000C0B23B2804DBC9
:103CD000002004002600FFF716FF012000901023AB
:103CE0002A783100C9B22000C0B2FFF77AFF083449
:103CF0006D1CDFE773BD80B58349012002F090FBA6
:103D00001420FFF7BDFE0021AE20FFF7E5FE0021E5
:103D1000D520FFF7E1FE00215020FFF7DDFE002156
:103D2000A820FFF7D9FE00213F20FFF7D5FE002194
:103D3000D320FFF7D1FE00210020FFF7CDFE0021A8
:103D40004020FFF7C9FE00218D20FFF7C5FE0021AE
:103D50001420FFF7C1FE00212020FFF7BDFE002147
:103D60000220FFF7B9FE0021A120FFF7B5FE0021D8
:103D7000C020FFF7B1FE0021DA20FFF7ADFE0021E1
:103D80001220FFF7A9FE00218120FFF7A5FE0021E8
:103D9000EF20FFF7A1FE0021D920FFF79DFE0021B3
:103DA000F120FFF799FE0021DB20FFF795FE0021AF
:103DB0003020FFF791FE0021A420FFF78DFE0021A7
:103DC000A620FFF789FE0021AF20FFF785FEFFF751
:103DD0009AFE01BD2DE9FB4F88B0914602A814213F
:103DE00001F01CFECDF804905FF0000A5046C0B20E
:103DF000082814DA002080464046C0B280280BDA3A
:103E00003E484146C9B200EBC1005146C9B200224A
:103E1000425418F10108EFE71AF1010AE6E734A16C
:103E200002A802F0C9FA02AA00215A20FFF73EFFB9
:103E3000364802682FA102A802F0BEFA02AA102199
:103E40005A20FFF733FF2CA102A802F0B5FA02AA0C
:103E500030215A20FFF72AFF5FF0000B5846BDF8CB
:103E6000261080B288423DD2594689B2BDF82A0058
:103E70004143BDF8260091FBF0F0ADF80000BDF81D
:103E80000010BDF8280041430D000020060030005E
:103E9000BDF8241080B2884221D2310089B2BDF829
:103EA00028004143BDF8240091FBF0F0070015FA0B
:103EB00087F004000198005D002807D100225946D0
:103EC000C9B23000C0B2FFF73BFE06E001225946FE
:103ED000C9B23000C0B2FFF733FE761CD7E71BF142
:103EE000010BBBE7FFF7CDFD0BB0BDE8F08F000085
:103EF000696D670025642000503400004C38FF1FB6
:103F0000C8B80000D8B2000040420F00F437FF1FCD
:103F100010B4020052B2002A09D50A01254B040050
:103F200064B214F00F04234403F8042C04E00A01E3
:103F3000214B040064B21A5510BC704710B5040040
:103F4000002C13D0B4F1807F03D329211B4802F049
:103F50008FFB1B48002101601A490C6000211A4A9E
:103F60001160052101600168C903FCD510BD10B5C1
:103F700004002000441E002804D014480068FFF705
:103F8000DDFFF6E710BD10B50400B4F1807F03D368
:103F900051210A4802F06CFB0A4804600F215FF0CF
:103FA000FF30FFF7B5FF00200749086007200449EC
:103FB000086010BD18ED00E000E400E01CC5000042
:103FC00010E000E014E000E018E000E04C3CFF1FCF
:103FD00010B504004FF4007094FBF0F100FB1140A9
:103FE000002803D01E210B4802F042FB0A4804605F
:103FF00010BD70B504000D00084E07480068B042BF
:1040000003D03021034802F033FB200040B246F8D1
:10401000205070BD18C7000008ED00E00000FF1F31
:104020001CB5DFF81804046802F0B6FB03F0C3FC0B
:10403000ADF8000003F0BCFCADF8020000220099CE
:10404000200000F001F813BDF2B50400150000993E
:10405000200003F0E0FBBDF80010BDF80200414372
:10406000DFF8DC0301220260DFF8D82300231360AD
:10407000DFF8D43300261E60DFF8D0632C273770BA
:10408000DFF8CC735FF0000CC7F800C05FF0010CE4
:10409000C7F800C05FF0010CC3F800C05FF0000C6F
:1040A0008C453AD25FF0010EC0F800E05FF0010EDF
:1040B000C2F800E05FF0000EC3F800E0AE461FFA61
:1040C0008EFE5FEA1E2E86F800E05FF0000EC7F855
:1040D00000E05FF0010EC7F800E05FF0010EC3F8EA
:1040E00000E05FF0010EC0F800E05FF0010EC2F8E2
:1040F00000E05FF0000EC3F800E035705FF0000EE6
:10410000C7F800E05FF0010EC7F800E05FF0010EB5
:10411000C3F800E01CF1010CC2E7F1BD2DE9F14F3D
:1041200082B00C0015001E00DFF828030068009024
:104130005FF0000903F03FFC0838BDF80810884222
:1041400006DB03F035FC1038BDF80A10884200DAAF
:10415000D5E00099029803F05EFBDFF8E40201214C
:104160000160DFF8E01200220A60DFF8DC220023A1
:104170001360DFF8D8325FF02C0C83F800C0DFF852
:10418000D0C25FF0000ECCF800E05FF0010ECCF87A
:1041900000E05FF0010EC2F800E05FF0000EF246B2
:1041A0005FFA8AFABAF1100F80F2A980A2465FFA8C
:1041B0008AFABAF1200F02DA5FF0200A5446DFF8DB
:1041C00098A2A3465FFA8BFB5FEA0B1B5BFA8EFBA0
:1041D000DA44BAF5007A9AF800A057465FF0000A70
:1041E000D046C2465FFA8AFABAF1080F80F284809C
:1041F0005FEA076A38D55FF0010AC0F800A05FF0F7
:10420000010AC1F800A05FF0000AC2F800A0AA46A7
:104210001FFA8AFA5FEA1A2A83F800A05FF0000A00
:10422000CCF800A05FF0010ACCF800A05FF0010A12
:10423000C2F800A05FF0010AC0F800A05FF0010A18
:10424000C1F800A05FF0000AC2F800A01D705FF086
:10425000000ACCF800A05FF0010ACCF800A05FF0E3
:10426000010AC2F800A037E05FF0010AC0F800A020
:104270005FF0010AC1F800A05FF0000AC2F800A0D8
:10428000B2461FFA8AFA5FEA1A2A83F800A05FF0A2
:10429000000ACCF800A05FF0010ACCF800A05FF0A3
:1042A000010AC2F800A05FF0010AC0F800A05FF0A8
:1042B000010AC1F800A05FF0000AC2F800A01E7059
:1042C0005FF0000ACCF800A05FF0010ACCF800A073
:1042D0005FF0010AC2F800A07F0019F10109CA4687
:1042E0005FFA8AFABAF1080F03DB5FF0000AD146E1
:1042F00002E018F1010874E71EF1010E4FE7BDE876
:10430000F78F71B581B00C0015001E0020780028D1
:1043100051D003F050FB0838BDF80410884207DA8A
:104320000020ADF80400BDF806001030ADF806001E
:1043300003F03EFB1038BDF80610884205DA002075
:10434000ADF806000020ADF8040020780A2809D155
:104350000020ADF80400BDF806001030ADF80600EE
:10436000641CD3E720780D2804D10020ADF80400A8
:10437000641CCBE7207809280ED133009BB22A00B9
:1043800092B220210198FFF7C9FEBDF80400083061
:10439000ADF80400641CB9E733009BB22A0092B266
:1043A00021780198FFF7BAFEBDF804000830ADF897
:1043B0000400641CAAE773BD2DE9F14181B00C0033
:1043C00016001F0025005FF00008BDF80600ADF8DC
:1043D0000200002C08D13B009BB2320092B2302187
:1043E0000198FFF79BFE27E0002D05D00A20B5FBC2
:1043F000F0F518F10108F7E7002C1DD0BDF8040016
:104400004146C9B289B210EBC1000838ADF80000CE
:10441000B8F101080A213B009BB2320092B2B4FB12
:10442000F1F001FB10413031C9B20098FFF776FE80
:104430000A20B4FBF0F4DFE7BDE8F381A0C9000077
:104440002810FE433010FE432C10FE4380F00F4036
:104450002410FE43A4C90000D8AC0000012210F0D3
:104460001F018A40704903005BB25B0941F82320B9
:104470007047012210F01F018A406C4903005BB2B3
:104480005B0941F82320704710B5040068480460B8
:1044900000F072F80028FBD000F002F8002010BDF8
:1044A000E0B5012002904FF41670019000200090BA
:1044B0001B235F4802685F49002003F0BFFA5E4893
:1044C00001684908490001605720FFF7D2FF5B48A7
:1044D000016851F0010101600020FFF7BFFF58495A
:1044E0001B2003F0A1FB57491D2003F09DFB07BDD6
:1044F00010B5554C94F90000042813D10320207006
:104500005720FFF7B6FF51485FF0006101604A4A4B
:10451000136853F0010313600160454800684C497B
:10452000086004E05720FFF7A4FF0220207010BDB0
:104530000120454908704148016851F001010160BE
:10454000704770B5404C04202070404D5FF0FF363E
:104550002E605720FFF782FF94F9000001280AD04F
:1045600094F900000228F7D1042020702E60572013
:10457000FFF774FFF0E770BD7CB5002600208DF8D2
:10458000000003F0BAFB8021122003F0B5FC0028E4
:1045900004D1304801F030FF002043E03220FFF723
:1045A000E6FC0B220121684603F0DFFC002804D161
:1045B000294801F021FF002034E09DF80010274831
:1045C00001F01AFF264C2178264801F015FF9DF8CE
:1045D0000000212825D100252800217880B289B249
:1045E000884219D2204E280080B206EB4000417864
:1045F000280080B216F8100080B203F07DFC00287D
:1046000008D1280080B216F81010184801F0F4FE06
:10461000002007E06D1CDFE7154801F0EDFE0120EA
:1046200000E0002076BD000000E100E080E100E055
:10463000883CFF1F50F00F400C8000402480004059
:1046400002010200120109008E20FF1FA090044009
:104650001090004064C80000CCC8000098C700005B
:104660008F20FF1F10C80000A41FFF1F7CC8000080
:10467000BCC700002DE9F14F0C0015001E005FF0D3
:1046800000086848D0F800905FF0000A494600989A
:1046900003F0C1F85E48012101605E4900220A6012
:1046A0005D4A002313605D4B5FF02C0C83F800C063
:1046B000DFF86CC15FF0000ECCF800E05FF0010E97
:1046C000CCF800E05FF0010EC2F800E05FF0000EF1
:1046D000F3465FFA8BFBBBF1200F80F2958094F8D4
:1046E00000B0D846641C5FF0000B5F46BB465FFA23
:1046F0008BFBBBF1080F80F284805FEA086B38D532
:104700005FF0010BC0F800B05FF0010BC1F800B022
:104710005FF0000BC2F800B0AB461FFA8BFB5FEAFC
:104720001B2B83F800B05FF0000BCCF800B05FF0FB
:10473000010BCCF800B05FF0010BC2F800B05FF0E5
:10474000010BC0F800B05FF0010BC1F800B05FF0E2
:10475000000BC2F800B01D705FF0000BCCF800B089
:104760005FF0010BCCF800B05FF0010BC2F800B0B5
:1047700037E05FF0010BC0F800B05FF0010BC1F84B
:1047800000B05FF0000BC2F800B0B3461FFA8BFB1D
:104790005FEA1B2B83F800B05FF0000BCCF800B091
:1047A0005FF0010BCCF800B05FF0010BC2F800B075
:1047B0005FF0010BC0F800B05FF0010BC1F800B072
:1047C0005FF0000BC2F800B01E705FF0000BCCF879
:1047D00000B05FF0010BCCF800B05FF0010BC2F845
:1047E00000B05FEA48081AF1010AD3465FFA8BFB72
:1047F000BBF1100F03DB5FF0000BDA4601E07F1C1A
:1048000074E71EF1010E63E7BDE8F18F00000000C0
:104810002810FE433010FE432C10FE4380F00F4062
:104820002410FE43A8C90000F1B50D0017001E00BA
:10483000069C3800471E80B200282AD003F0BBF83F
:104840001038BDF80010884207DA0020ADF80000EB
:10485000BDF802001030ADF8020003F0A9F81038DE
:10486000BDF80210884205DA0020ADF802000020F1
:10487000ADF8000023009BB2320092B229000098EC
:10488000FFF7F8FE2035BDF800001030ADF800004D
:10489000CFE7F1BD38B505000C00002C03D1222173
:1048A000174801F0E5FE1748016851F40001016066
:1048B0000020154908601548611E2A0052B21201F5
:1048C0008150290049B209010144C96851F0010130
:1048D0002A0052B212010244D160290049B20901F2
:1048E00001448968490849002A0052B21201024471
:1048F000916003212A0052B212011044816031BD3F
:10490000A8C600003C8004400070034000710340D2
:1049100010B50400200040B2042808D20122012171
:104920002A4823005BB2C05C00F0DAFC0FE00420F0
:1049300004002000441E40B2002808D001220121BA
:10494000224823005BB2C05C00F0CAFCF1E710BD56
:1049500038B505000C00280040B2042808D2210018
:10496000C9B21A482A0052B2805C00F014FD0FE070
:10497000042005002800451E40B2002808D0210070
:10498000C9B212482A0052B2805C00F004FDF1E77F
:1049900031BD10B50400200040B2042806D20B48F7
:1049A000210049B2405C00F031FD0DE0042004001C
:1049B0002000441E40B2002806D00448210049B21D
:1049C000405C00F023FDF3E710BD0000A01FFF1FB7
:1049D00038B50400200040B207280EDA794D0022D5
:1049E0000021200040B2285C00F07AFC0321200066
:1049F00040B2285C03F03CF915E0072004002000D9
:104A0000441E40B200280ED06E4D0022002120002E
:104A100040B2285C00F064FC0321200040B2285C16
:104A200003F026F9EBE731BD10B50400654821001D
:104A300049B2405C00F007FD002801D1002000E0F1
:104A4000012010BD10B50400200040B2FFF7ECFFBC
:104A500000280AD10A20FFF78AFA200040B2FFF7A7
:104A6000E3FF002801D1002000E0012010BD11B4B7
:104A700055480178022920D0544A55499DF8003004
:104A80000C7802F814300B7802EB43029DF80130E9
:104A900053700A78521C0A700A78142A01DB00222B
:104AA0000A7009780A004B4B1B78D2B29A4202D1A5
:104AB0000222027001E00122027011BC704710B4A2
:104AC0000100414A1078002801D100201FE03F4B2F
:104AD0004048047813F814400C70047803EB440346
:104AE0005B784B7003785B1C03700378142B01DB3D
:104AF00000230370364B1B7800781C00E4B2A04200
:104B000002D10020107001E001201070012010BCC3
:104B1000704738B50024200040B2072850DA200042
:104B200040B2FFF781FF002836D12B4D200040B264
:104B3000285C401C210049B26854200040B2285C27
:104B400002283BDB200040B2285C022808D18DF807
:104B5000004000208DF801000098FFF788FF2DE04D
:104B6000200040B2285C332828DB200040B2285CBB
:104B700033280CD18DF8004002208DF801000098F8
:104B8000FFF775FF0220210049B2685416E00220A9
:104B9000210049B2685411E00F4D200040B2285C5A
:104BA000022807DB8DF8004001208DF801000098F5
:104BB000FFF75DFF0020210049B26854641CAAE79A
:104BC00031BD0000981FFF1FEC3CFF1F583CFF1F2A
:104BD000EB3CFF1FEA3CFF1F803CFF1F2DE9F84321
:104BE00004000D00200040B2002808D0022828D080
:104BF00016D3042847D035D3052855D065E0DFF813
:104C0000F001016851F4806101604FF44071662049
:104C100003F00AF84FF44071672003F005F854E000
:104C2000DFF8CC01016851F4006101604FF440717C
:104C3000432002F0F9FF4FF44071442002F0F4FFEA
:104C400043E0DFF8AC01016851F480510160DFF806
:104C5000A4616821300001F00BFD7221300001F0E9
:104C600007FD32E0DFF88801016851F4005101606E
:104C70004FF44071502002F0D7FF4FF440715120A3
:104C800002F0D2FF21E0DFF87001016851F4806189
:104C900001604FF44071992002F0C6FF4FF440715B
:104CA000982002F0C1FF10E0DFF84C01016851F4D8
:104CB000006101604FF44071892002F0B5FF4FF4AC
:104CC0004071882002F0B0FFFFE7DFF8306120007C
:104CD00040B256F82000C07810F0F300210049B22D
:104CE00056F82110C870200040B256F82000807895
:104CF000210049B256F821108870200040B20028E7
:104D000003D0200040B2012806D1DFF8F400076884
:104D10004FF47A70474305E0DFF8E80007684FF486
:104D20007A7047432801B7FBF0F8404680B2B0F5EF
:104D3000005F02DB41F6FF708046B7FBF5F94046A5
:104D400080B2B9EB0019484680B2202803DBDC2191
:104D5000284801F08DFC200040B256F82000007871
:104D600010F0E000C8F304210143220052B256F8CB
:104D700022201170210049B256F8211081F80180DB
:104D8000210049B256F82110897A11F0E00119F09A
:104D90001F020A4323005BB256F823309A722200A6
:104DA00052B256F82220127C52F0880223005BB2E5
:104DB00056F823301A74220052B256F82220D278C4
:104DC00052F00C0223005BB256F82330DA70BDE8D3
:104DD000F1830A4A03005BB252F823301B791B06A9
:104DE000F7D503005BB252F82320D1717047000061
:104DF00034800440E0C6000028800440001FFF1FEC
:104E00004C3CFF1F543CFF1F80B5322003F00AF9D1
:104E1000102003F007F9372003F004F9172003F0FE
:104E200001F9302003F0FEF801BD2DE9F041224EDA
:104E30000021322003F0F1F930700021102003F03E
:104E4000ECF970700021372003F0E7F9B070002111
:104E5000172003F0E2F9F0700021302003F0DDF9B3
:104E600030713079972825DBDFF850800024144D0D
:104E7000307900F02BFE5FF06632124B00F05AF8EA
:104E8000114A124B00F028F922002B0000F052F8D2
:104E900006000F00D8F8000000F018FE22002B00DA
:104EA00000F048F832003B0000F016F903F00EFA6B
:104EB000C8F80000BDE8F081B822FF1FC022FF1F24
:104EC0000000E03F660644401F85EB51B87E5F401E
:104ED0004FF4001C1CEB410F94BF1CEB430F09E087
:104EE00041EA030C50EA4C0C52EA0C0C03D28B4200
:104EF00008BF8242704714BF994290427047002811
:104F000048BF404270470268531C036011707047ED
:104F1000C11768B14840401AB0FA80F29040D21CE4
:104F2000C907C2F5846241EA025202EBD021400572
:104F30007047FF00B0B581EA030C0CF0004C40F262
:104F4000FF7515EA11541DBF15EA1357AC42AF4265
:104F500039E0E41923EA455343F48013C90241F0D0
:104F6000004141EA505EC7021100A7FB020200287F
:104F70004FF00000EEFB01204FF00001E3FB0721A2
:104F800018BF42F00102401800214941E3FB0E0125
:104F9000A4F580640F0302D252004041494154F10C
:104FA00001046CDD470872F1004250F1000051EB42
:104FB0000451A1F580115CBF41EA0C01B0BD4CEA7F
:104FC00005510020B0BD05EA1357AC4214BFAF42F3
:104FD00041E050EA410E1CBF52EA430E02E0614636
:104FE0000020B0BD24423C441BD15FEA070EF6D03E
:104FF000090302BF01460020AEF1140EB1FA81F799
:10500000AEEB070401FA07FE0C37C7F1200100FAE6
:1050100007F7C8404EEA000E23EA455343F48013D5
:10502000A2E733F00043B3FA83F704BFB2FA82FE7B
:1050300077440B3FE41BB7F1200E2FBF02FA0EF3AB
:10504000BB40C7F1200E22FA0EFE38BF43EA0E0322
:10505000BA40641C82E750EA410E14BF52EA430E84
:105060006FF000014FF4001717EB430F8ABF19468A
:1050700017EB410FB5E74CEA05510020B0BDD4F164
:105080000104B4F120070FDAC4F12007520828BF49
:1050900042F0010210FA07F501FA07F7E1BF2A43CF
:1050A000E0403843E1400FE0352C98DCC7F12004A4
:1050B00052EA400220FA07F218BF42F0010231FA28
:1050C00007F0A1400A43002172F1004250F10000B4
:1050D00051EB0C01B0BD000070B44FF0004591EAF7
:1050E000030F40F109856B40841A71EB030604D26B
:1050F0006E40001BB141121973414FF4001C1CEBB0
:10510000410F34BF7CEB430683E00C0DA4EB135638
:10511000362E00F37C80012E45EAC32341DC43EAAE
:10512000525312BFD20292025B08240545EAC12104
:1051300041EA5051D2EBC020994125D407D1B0FAB1
:1051400080F610FA06F162D00020203608E0B1FAAD
:1051500081F6B140C6F1200220FA02F21143B040BC
:105160004FEAF474B4EB465434F001064FEA740489
:105170000AD8D6F50016760D04F00044F04061FA26
:1051800006F25040F1404840C00A40EA415021F048
:10519000004128BF5FEA500550F1000044EBD121E7
:1051A00035E0DB0A45EAC121C90AB6F120050EDD6A
:1051B00042EA0242120CC5F1200603FA06F6EB4061
:1051C00042EA06056D42984161F100010DE062FA84
:1051D00006F5F240554063FA06FC82EA0C02F34001
:1051E0005A406D42904161EB030111F4801F05D1DB
:1051F000641E620502D06D004041494121F48011D6
:10520000430875F1004350F1000041EB045170BCBC
:1052100070471CEB410F15D223F0004352EA4306BE
:105220000BD04FEA4C0CBCEB410F04D80C0D661EA2
:10523000342EB7DDEBE7801A994150EA410608BFEA
:105240000021E4E708BF1CEB430F28BF6FF000010B
:10525000DDE700004FF0807C1CEB400F94BF1CEB9F
:10526000410F05E040EA010C1CEB0C0F01D281421A
:10527000704718BF88427047C0F3C7517E390EDDB2
:10528000C217D1F1200106DD000240F00040C84005
:10529000104450407047D04380F0004070470020D9
:1052A00070470000C1F30A5340F2FE329B1A14DD2E
:1052B000D3F120034FEAE17208DDC90241EA5051FF
:1052C00041F00040D84080185040704703F2E13070
:1052D00010B1D24382F000407047002070470000B8
:1052E000F8B504000D0016004FF480712000C0B224
:1052F00002F09AFC280040B2002812D16148210037
:10530000C9B2491150F821102200D2B2521150F8FE
:1053100022004269012314F01F0083409A434A612E
:1053200038E00121574A2000C0B2401152F8200055
:105330002300DBB25B1152F823305B6914F01F07C6
:1053400011FA07F73B4343613000C0B2002811D186
:105350002000C0B2401152F82000036814F01F0072
:10536000814033EA01012000C0B2401152F8200010
:1053700001600FE02000C0B2401152F82000036825
:1053800014F01F00814019432000C0B2401152F8B0
:1053900020000160F1BD70B504000D00394E200001
:1053A000C0B2401156F82000406914F01F01C840F7
:1053B000C00703D46321344801F05AF92800C0B271
:1053C000002811D12000C0B2401156F82000016819
:1053D000012214F01F00824091432000C0B240110E
:1053E00056F82000016010E02000C0B2401156F8CD
:1053F00020000168012214F01F00824011432000A8
:10540000C0B2401156F82000016070BD38B50400EC
:105410001C4D2000C0B2401155F82000406914F026
:105420001F01C840C00703D47B21174801F020F9B1
:105430002000C0B2401155F82010012214F01F00C6
:105440008240CA6031BD38B504000E4D2000C0B2A4
:10545000401155F82000406914F01F01C840C007F2
:1054600003D58C21084801F003F92000C0B2401197
:1054700055F82000006914F01F04E04010F001000E
:1054800032BD0000881EFF1F70C6000038B5040042
:105490000D00200040B2002803D0022864D048D379
:1054A0007DE0DFF8C804016851F0807101602800D8
:1054B00040B200280BD0022815D00ED304281ED0ED
:1054C00017D3062827D020D307282AD02FE04FF45F
:1054D0008061412002F0A8FB2AE04FF440710420D3
:1054E00002F0A2FB24E04FF44071052002F09CFB87
:1054F0001EE04FF44071062002F096FB18E04FF4D6
:105500004071072002F090FB12E04FF44071002040
:1055100002F08AFB0CE09721DFF8540401F0A8F8B0
:1055200006E0A621DFF8480401F0A2F800E036E02A
:1055300035E0DFF83804016851F00071016028009F
:1055400040B2002802D0012806D00BE04FF4407191
:10555000082002F069FB06E04FF440710D2002F0D4
:1055600063FB00E01BE01AE0DFF80804016851F07B
:1055700080710160280040B2002802D0012806D0C6
:105580000BE04FF440710A2002F04EFB06E04FF4AE
:1055900040710B2002F048FB00E000E0FFE731BD66
:1055A0002DE9F84F04000D0016001F00200040B246
:1055B000002811D0200040B2012803D0200040B2C2
:1055C000022803D1280040B2022805DB40F28511F1
:1055D000DFF89C0301F04CF8290049B2200040B2EA
:1055E000FFF754FFDFF89003D0F800904FF47A7083
:1055F00000FB09F94846000CB0FBF6FA5FF0000B1F
:10560000504680B250FA0BF0012802DB1BF1010B6F
:10561000F6E75846C0B2082805DB4FF4D071DFF832
:10562000500301F025F8484630FA0BF0B0FBF6F0D5
:10563000010089B2DFF8442323005BB242F8231053
:10564000210049B2002903D0022915D00AD31DE058
:10565000010089B2491C01FB07F16422B1FBF2F1A0
:10566000884613E0010089B2491C01FB07F164225E
:10567000B1FBF2F1884609E0010089B2491C01FB47
:1056800007F16422B1FBF2F18846FFE7DFF8F01280
:10569000220052B251F822202B005BB202EBC3026F
:1056A00023005BB251F82330AC464FFA8CFC03EB7D
:1056B000CC03DB6833F00403D360220052B251F80C
:1056C00022202B005BB202EBC3022823D3605A4690
:1056D000D2B212F0070252F0080223005BB251F876
:1056E00023301A60020092B223005BB251F82330DB
:1056F0009A60002223005BB251F82330DA64220062
:1057000052B251F822202B005BB202EBC302434697
:105710009BB21361002223005BB251F823104A6050
:10572000BDE8F18F2DE9F04180460C0015000027FF
:10573000404640B2002811D0404640B2012803D074
:10574000404640B2022803D1200040B2022805DBC7
:105750004FF4F371DFF8180200F08AFF404640B2C0
:10576000002803D0022813D009D31AE0652D05D3F1
:105770004FF4F671DFF8F80100F07AFF11E0652DC3
:1057800005D34FF4F871DFF8E80100F071FF08E08D
:10579000652D05D34FF4FA71DFF8D40100F068FFEE
:1057A000FFE7DFF8D801414649B250F821004146F1
:1057B00049B2002903D0022911D008D317E0411CB7
:1057C00001FB05F16422B1FBF2F10E000FE0411C78
:1057D00001FB05F16422B1FBF2F10E0007E0411C70
:1057E00001FB05F16422B1FBF2F10E00FFE7DFF8E7
:1057F0009011424652B251F82210220052B201EBEF
:10580000C2010E61BDE8F08110B50400200040B275
:10581000012808D0200040B2022804D040F2DB2149
:10582000534800F025FF200040B2012802D0022892
:1058300010D01FE04D48016851F0007101604FF435
:10584000E0610C2002F0F0F94FF4E0610D2002F06D
:10585000EBF914E04748016851F0807101604FF4A2
:10586000C0610A2002F0E0F94FF4C0610B2002F0A1
:10587000DBF904E040F213313D4800F0F9FE404806
:10588000210049B250F82110496D51F00401220065
:1058900052B250F822205165210049B250F821102F
:1058A000D1F8801051F00801220052B250F82220A5
:1058B000C2F880100021220052B250F82220D16498
:1058C0004FF6FF71220052B250F822209160210061
:1058D00049B250F82110D1F8801051F00101220096
:1058E00052B250F82220C2F88010210049B250F87C
:1058F0002110496D51F00101220052B250F82220CE
:1059000051650021220052B250F82200416010BDC2
:1059100010B50400200040B2012808D0200040B299
:10592000022804D04FF44C71114800F0A1FE144835
:10593000210049B250F82100406800B210BD10B5F6
:105940000400200040B2012808D0200040B2022804
:1059500004D040F23E31064800F08AFE002008499B
:10596000220052B251F82210486010BD3C80044021
:1059700038C6000030800440543CFF1F4038FF1FF1
:105980007C1EFF1FF8B4030023480088ADF8000018
:105990001E000D001000421E00283BD02878040095
:1059A0006D1C68462700FFB2FF11C75D3770761C7B
:1059B0002700FFB2C7F38017C75D3770761C27003A
:1059C000FFB2C7F34017C75D3770761C2700FFB2E0
:1059D000C7F30017C75D3770761C2700FFB2C7F307
:1059E000C007C75D3770761C2700FFB2C7F380077A
:1059F000C75D3770761C2700FFB2C7F34007C75D4D
:105A00003770761C2700FFB217F00107C05D3070B9
:105A1000761CBFE7F1BC7047324F0000002202F055
:105A200069BC000062B38B0708D0521E11F8013B1D
:105A300000F8013B00F024808B07F6D1830740F08B
:105A4000208000BF103A07D330B4B1E83810103AC4
:105A5000A0E83810F9D230BC530724BFB1E80810D1
:105A6000A0E8081044BF51F8043B40F8043BD207BB
:105A700024BF31F8022B20F8022B44BF0B780370AF
:105A80007047121F17D35B0009D151F8043B20F86F
:105A9000023B1B0C121F20F8023BF6D20BE051F820
:105AA000043B00F8013B1B0A20F8023B1B0C121FB1
:105AB00000F8013BF3D238BF121D521E24BF11F86B
:105AC000013B00F8013BF8D870470000014648B19F
:105AD000B0FA80F18840C91CC1F58461090501EB69
:105AE000D02140057047000070B44FF0004591EAA6
:105AF000030F7FF5F9AA6B40841A71EB030603D2FA
:105B0000001BB141121973414FF4001C1CEB410FF3
:105B100034BF7CEB430442E00C0DA4EB1356352E4E
:105B20004FDC45EAC323DB0A45EAC121C912B6F1BD
:105B300020050DDD63FA05F6EB4086EA0305124207
:105B400018BF45F00105C01851F100010CD213E057
:105B500062FA06F5F2405540F3415A40B340F34033
:105B60005A408018594107D349085FEA30005FEA7C
:105B7000350528BF45F0010501F58011420875F192
:105B8000004250F1000041EB04514E0016F5001F99
:105B900070BC38BF70470020090D090570471CEB29
:105BA000410F10D252EA43060BD0BCEB410F05D88F
:105BB0000C0DAB43661E342EB6DD02E0AB438018FD
:105BC000594170BC704770BC70470000F0B540F29E
:105BD000FF7581EA030C0CF0004C15EA11541DBF4F
:105BE00015EA1357AC42AF42E5E0BC41C1F31301E3
:105BF000C3F31303801A994143F4801304D2641E43
:105C00004000494180185941C90241EA5051B1FB55
:105C1000F3F603FB1611A2FB0675D7EBC020A941D2
:105C200002D2761E80185941C90241EA5051B1FB97
:105C3000F3FE03FB1E11A2FB0E75D7EBC020A9419A
:105C400003D2AEF1010E80185941890241EA905108
:105C5000760546EA8E2EB1FBF3F603FB1611A2FB86
:105C60000675D7EB8020A94102D2761E80185941D3
:105C7000C90241EA50514EEA060EB1FBF3F603FBAE
:105C80001611A2FB0675D7EBC020A94102D2761EE1
:105C900080185941C90241EA5051B1FBF3F703FBA7
:105CA0001711A2FB0735D3EBC020A94167F100070C
:105CB0000CBF004247F0010766F3D5274FEA1E31BB
:105CC000B80814F5806412DDBD0775F1004250EB91
:105CD0000E5051EB045111F5801F5CBF41EA0C01DD
:105CE000F0BD4CF07F6141F0E0410020F0BDBD0708
:105CF0006D0840EA0E5041F48011D4F10104B4F172
:105D000020060ADAC4F120060200E04001FA06F398
:105D1000E1401843B24015430EE0342C13DCC6F1C9
:105D2000200445EA40056D0820FA06F2154321FAE1
:105D300006F0A1400D43002175F1004250F1000032
:105D400051EB0C01F0BD00205FEA0C01F0BDCFB9B2
:105D500092185B41B3FA83F704BFB2FA82F6BF1917
:105D60000B3FB7F120062FBF02FA06F3BB40C7F185
:105D7000200622FA06F638BF3343BA401CB1E419B4
:105D8000641E33E77F4231F00041B1FA81F404BF71
:105D9000B0FA80F6A4190B3CB4F120062FBF00FA2C
:105DA00006F1A140C4F1200620FA06F638BF3143BF
:105DB000A0403C1B1AE7AC421ABF05EA1357AF429A
:105DC00012E050EA41061CBF52EA4306BFE750EA20
:105DD0004107304661461CBF41EA0551F0BD52EA19
:105DE000430C08BFC143F0BD00204FF4001616EB72
:105DF000410F98BF16EB430F08BF16EB410F24BFAE
:105E0000C14305E016EB430F0CBF61464CEA055158
:105E1000F0BD000001F000428B1AA3F16051B1F512
:105E2000801F0ADBB1F17F6F1FD242EAC102C100BD
:105E300071F1004142EB507070470B15C3F109033B
:105E4000212B10D2890241EA905180020128494158
:105E500041F0004121FA03F0C3F12003994071F1B0
:105E6000004150417047100070476FF0000013EB85
:105E7000103F5CBF000E42EAC0507047C0F3C751EC
:105E800081B1FF2906D0C110400721F0E04101F1A6
