:020000041FFFDC
:10000000F8FF00201104FF1F432CFF1F432CFF1F8C
:10001000432CFF1F432CFF1F432CFF1F432CFF1FAC
:10002000432CFF1F432CFF1F432CFF1F432CFF1F9C
:10003000432CFF1F432CFF1F432CFF1F432CFF1F8C
:10004000432CFF1F432CFF1F432CFF1F432CFF1F7C
:10040000FFFFFFFFFFFFFFFFFFFFFFFFFEFFFFFFFD
:1004100062B602F09DFFFEE72DE9F0439FB00FF6B4
:10042000A836269CDFF804898DF83B400291002411
:100430000B944FF0FF37044691461D460AE019F829
:10044000011B0298A0470028029000F0A1800B98A1
:10045000401C0B9099F8000050B12528EFD10021E5
:100460000022059106920791089209910A9203E0F1
:100470000B98A0E041F0010119F8010F2028F9D0F4
:1004800023280CD02B2804D02D2805D0302809D0C3
:1004900080E041F00201EFE741F00401ECE741F0B8
:1004A0000801E9E741F01001E6E70D920AE00D9836
:1004B000404505DA00EB800002EB4002303A0D9235
:1004C00009F1010999F80020A2F130000A28EED3C1
:1004D00099F800002E2818BF0C9726D119F8010FA3
:1004E0002A2808D12868286009F1010950F8042B4E
:1004F00028600C9219E02D280CBF09F10109002099
:1005000000220C920BE040B90C9A424505DA02EB4E
:10051000820203EB4203303B0C9309F1010999F885
:100520000030A3F130020A2AEDD3ADF8381030467E
:1005300099F8001000F098FD08B119F8010B8DF83A
:100540003A009DF83A00682805D199F8000068281B
:100550000CD1622106E06C2804BF99F800006C28D9
:1005600004D171218DF83A1009F1010910A8049005
:100570002A4619F8013B6946204600F05CF838B974
:1005800010AA6946204600F086F900287FF562AF80
:10059000384610E02A2888D12A682A6052F8040BCD
:1005A0002A6000280D9003D540420D9041F00401CF
:1005B00009F101098CE71FB0BDE8F083622820D063
:1005C000682811D06A2803D06C2827D0712825D13B
:1005D0000868C01D20F007000860D0E9002308303B
:1005E0000860194610467047002A0A680A601068B9
:1005F00003D0121D0A6000B217E0121D0A6080B21B
:1006000017E0002A0A680A60106803D0121D0A6009
:1006100040B20AE0121D0A60C0B20AE0002A0A686D
:100620000A60106803D0121D0A60C1177047121DBE
:100630000A600021704770B51C460D46B4F12500D4
:100640002E69114600F015812038022863D913382D
:1006500040D00B3816D0401E1ED0401E02285AD95A
:10066000001F19D0401F00F08180401E32D0401E74
:1006700000F0CB80C01E00F0DA80801E2AD0C01EA1
:1006800028D0FCE06869421C6A610A680A6052F876
:10069000043B0A603354FCE095F83A000122FFF76E
:1006A0008DFFC5E90001002904D56869411C696115
:1006B0002D220DE0288F810704D56869411C6961EE
:1006C0002B2205E0C00721D56869411C6961202201
:1006D00032541BE095F83A000022FFF76FFFC5E99E
:1006E000000195F83800010710D5D5E90023002B4B
:1006F00008BF002A0AD044F02000782806D1686993
:1007000030213154401C421C6A61345421466869CE
:100710003044E86087E00868C01D20F007000860EA
:10072000D0E9002308300860C5E90023D5E90001BD
:10073000C80F04D06869411C69612D220DE0288F23
:10074000810704D56869411C69612B2205E0C00757
:1007500004D56869411C69612022325468693044BB
:10076000E8602146284600F0C4F992E005F13A021B
:10077000507820B14FF0FF340FF6540062E010784B
:10078000622808D0682824D06A2812D06C282ED07D
:1007900071280ED02BE00A680A6052F8040B0A6038
:1007A00020B94FF0FF340FF640004BE0E96A0170CA
:1007B0006FE00A680A6052F8040B0A6020B94FF033
:1007C000FF340FF624003DE0EA6AD317C0E90023A6
:1007D0005FE00A680A6052F8040B0A6020B94FF023
:1007E000FF340FF604002DE0E96A018051E00A6849
:1007F0000A6052F8040B0A6020B94FF0FF340FF280
:10080000E8701FE0E96A016043E00A680A6052F894
:10081000040B0A60002120F0000221F0FF33C5E93B
:100820000023EE607821284600F0BBF831E008682C
:10083000086050F8044B0860EC603CB94FF0FF349E
:100840000FF2BC7000F01CFC201A70BD2E6B002E45
:1008500004D5204600F034FC044608E0324600216E
:10086000204600F049FC002814BF041B3446AC614C
:100870000FE06869411C69612522325409E0696909
:10088000481C686125227254210002D0431C6B6110
:100890003454002070BD2DE9FC410F4606469046B9
:1008A0007A6B7869396ABC6A121AB869521A796A1D
:1008B000121AF869521A121A97F83800141B4107D5
:1008C0000FD42020002C8DF800000ADD25460123DE
:1008D0006A463946304600F05FFB00285DD16D1E48
:1008E000F5D17B6942463946304600F055FB002879
:1008F00053D130208DF800003D6A002D09DD012321
:100900006A463946304600F047FB002845D16D1E47
:10091000F5D1BB69FA683946304600F03DFB002846
:100920003BD130208DF800007D6A002D08DD0123C9
:100930006A463946304600F02FFB70BB6D1EF6D17B
:10094000F868B969FB6942183946304600F024FB63
:1009500018BB30208DF80000BD6A002D08DD012392
:100960006A463946304600F017FBB0B96D1EF6D125
:1009700097F8380041070DD52020002C8DF8000095
:1009800008DD01236A463946304600F005FB20B9F0
:10099000641EF6D10020BDE8F6814FF0FF30BDE8BF
:1009A000F6812DE9FC4307466F293E6908BF0824FC
:1009B00005D041F02000782814BF0A2410243C25DB
:1009C000D7E90023642918BF69299046994605D1C3
:1009D000002B03D5D8F1000869EB4909B9F1000FE4
:1009E00008BFB8F1000F1FD1386BE8B9082C4CD103
:1009F00097F83800010748D530203B2586F83B00A2
:100A000043E000280ED597F8380000F014001028B5
:100A100008D17B6B7969386A5B1A1B1A9A1A002A0B
:100A2000C8BF3A62BDE8F3838DF8001040464946DE
:100A30002246E31700F08CFB3032D0B26D1E3A280C
:100A4000019504DB9DF80000A0F151018A18725550
:100A5000404649462246E31700F07AFB80465FEAAB
:100A6000010908BFB8F1000F03D0F8687119884276
:100A7000DCD3082C09D197F83800010705D5705D43
:100A8000302802D06D1E30207055C5F13C02BA618D
:100A90007119F960386B8242B3DA821A3A624FF602
:100AA000EF70398F01403987BDE8F3832DE9D043DA
:100AB00006460F4614464FF00008DFF8749212E025
:100AC000E00707D542464B463046394600F058FC11
:100AD00006460F464046494642464B4600F050FC0B
:100AE000641080468946002CEAD130463946BDE87C
:100AF000D0832DE9F047064689468EB0D6E900013D
:100B0000CDE9020104AC306B002802D50620306329
:100B100005E001BF49F02000672801213163D6E9D3
:100B2000002358004015401C0DD119030BD0A9F12A
:100B3000610103201A29B06102D20FF2E04110E0F6
:100B40000FF2DC410DE059004915491C0ED1180384
:100B50000CD1A9F1610103201A29B06116D30FF25B
:100B6000C841F068032200F0DDFCDBE023F0004721
:100B7000B7F5801F1046194622F000050DD200225D
:100B8000002F08BF002D019203D116E00FF294410F
:100B9000E7E701AA00F01AFD08E06648664900EBA5
:100BA000175001906548034010461943019B644D5E
:100BB00047F29752534393FBF5F2C6E9000120F048
:100BC000000331F0004104BF002B002300F0A2809D
:100BD000DDE90240019220F00045D2F1070204DD78
:100BE00020462946FFF762FF0AE05242002055499D
:100BF000FFF75CFF02460B462046294600F01EFD2B
:100C0000044649F0200ABAF1660F306B06BF019D19
:100C10000A3506252D18142DC8BF14253020884606
:100C20008DF810000DF11107002D33DD20464146EF
:100C300000F028FE01460A4607F1080304200A27AF
:100C4000B2FBF7F707EB870EA2EB4E02303203F848
:100C5000012C0A22B7FBF2F202EB820EA7EB4E0741
:100C60003037401E03F8027DE9D1083D002D03F125
:100C70000807D9DD084600F019FE02460B4620465B
:100C8000414600F021FE00222F4B00F079FB044684
:100C90008846CBE70DF111003F1A0DF1110404E075
:100CA0000198401E7F1E0190641C20783028F7D0E8
:100CB000BAF1660F02D10198401C04E0BAF1650F49
:100CC0000CBF01200020336BC3189F42B8BF7B1EAE
:100CD000002B1ED4BB4204DAE05C3528A8BF3920C3
:100CE00000DA30201946621E02EB010800E05B1EAC
:100CF00018F80179491E8742F9D0392802D1605C81
:100D0000401C6054002904D50198401C14465B1C0B
:100D10000190019800B200901BB22246494630462D
:100D200000F014F80EB0BDE8F0870000CBCCCC0C7E
:100D30000000244002FCFFFF0000E03FFFFF0F80A7
:100D4000A08601000000F03F84D797412DE9F847C5
:100D500083B005468A469146984600F027FEB8F1D2
:100D6000000F406A2F6B067803DC4FF001080FF28A
:100D7000BC294AF02000BDF93040662808BF641C39
:100D800013D0672840F08F8014F1040F7ADBBC4247
:100D900078DA95F83800641C010702D4B845B8BF6A
:100DA000474620B23F1A48BF00270FFA84FAE86886
:100DB000A969BAF1000F23DC4A1C30234354002FE9
:100DC00003DC95F83800010702D5E8688654521C08
:100DD00017EB0A0FB8BF7C4224B2E71960424745BF
:100DE000B8BFB846AA6168620FFA88F4EC61E86897
:100DF000AB6922464946184400F094FB3F1B18E0BB
:100E000022B29045084416DA4246494600F08AFB71
:100E1000A8694044A861AAEB0801002F696203DCBD
:100E200095F838100A0704D5E9680E54E869401CA3
:100E3000E861AF6299E0494600F074FBA869002FB1
:100E40005044A8EB040803DC95F838100A0702D5D3
:100E5000E9680E54401CA8610FFA88F08742EB68DD
:100E6000A869B8BFB8460FFA88F209EB0A0118441E
:100E700000F058FBA9690FFA88F00144A961381AFB
:100E8000686272E0B84504DA95F838100A0758BF6E
:100E900047467F1E48BF0027BAF1670F0CBF4FF0CF
:100EA000650A4FF0450AA969EB68481CA861002F44
:100EB00019F8012B5A5403DC95F838100A0719D594
:100EC000E968431CAB610E54002F13DDA8F1010645
:100ED00030B28742D5F80CC0B8BF3E4632B2494660
:100EE0000CEB030000F01EFBA86936B23018BF1BE4
:100EF000A8616F62E868A9690844002C80F800A026
:100F000003D42B224270811C03E02D2141706442E6
:100F1000811C00206A460AE023460A2493FBF4F46D
:100F200004EB8406A3EB460302F8013B401C24B209
:100F3000002CF1DC012806DC4AF02002652A04BFFF
:100F4000302201F8012B48B9302001F8010B07E0ED
:100F5000401E1DF80030303301F8013B0028F7DC5B
:100F6000EA68A8691044091AE96195F8380000F0A8
:100F7000140010280DD16A69A969686A8A18E9699C
:100F80008218A86A8A188218686B8242BCBF821ACB
:100F90002A6204B0BDE8F087F8B505460E4617464C
:100FA0001C46002074B117F8011BB068A847B06058
:100FB00030B1F06A401CF0620020641EF3D1F2BD33
:100FC0004FF0FF30F2BD0000686A6C747A4C00008C
:100FD0007072696E74665F733A20256E206469735F
:100FE000616C6C6F776564007072696E74663A202C
:100FF00062616420256E20617267756D656E740094
:101000007072696E74665F733A2062616420257342
:1010100020617267756D656E740000006E616E0010
:101020004E414E00696E6600494E4600300030B4B5
:10103000002513E050F8042BD30744BFA9F10103A6
:101040009A18091F042942F8045BFAD213468C0748
:1010500044BF15809B1CC90748BF1D7050F8041B76
:101060000029E7D130BC7047C9B202788A421AB170
:101070001CBF10F8012FF9E718BF002070470000CF
:1010800080B500B906A005490B681BB122220021DA
:10109000984701E000F08EFC222002BD8C42FF1F29
:1010A000636F6E73747261696E742068616E646CD4
:1010B00065723A20626164206D65737361676500D3
:1010C00000F10103810704D010F8011B820781B1F0
:1010D000FAD10268A2F10131914311F0803104BFCD
:1010E00050F8042FF6E709BAB1FA81F100EBD1000C
:1010F000401CC01A70470000C9B2830706D0521EB8
:1011000022D310F8013B9942F7D11FE0083A13D3DC
:1011100002F1040241EA012141EA014150F8043B95
:10112000121F21BF4B40A3F1013C2CEA030C1CF021
:10113000803FF3D0C9B2001F083210F8013B521EA5
:1011400028BF91EA030FF8D818BF0120401E70474E
:10115000BBBBE1B1B2F5803F80F07E80022A1ED990
:101160008C46B1FBF2F102FB11C31B0443EA1043AE
:10117000B3FBF2FC02FB1C3380B240EA0343B3FB37
:10118000F2F002FB103240EA0C4000237047022AC2
:1011900005D98446B0FBF2F002FB10C270474AB199
:1011A00005D100F0010249085FEA300070470022D3
:1011B0000023704700F002BC0B0002000021002059
:1011C0007047904271EB030CF6D3B3F5803F2FD2FA
:1011D000F0B5B3FA83F7B1FA81F4A7F10F0E3D1B16
:1011E0005340CEF1200602FA0EF2F3415340B5F11E
:1011F0000F0746D80F3C2C444140C4F12006A040C4
:10120000F1414140B1FBF3F603FB1611A2FB064589
:10121000001BA94102D2761E8018594180EA0102C2
:1012200021FA0EF362FA0EF200215A403046F0BD68
:1012300030B4B1FBF3FC03FB1C11A2FB0C45001BFB
:10124000A94103D2ACF1010C8018594130BC0246CF
:101250000B46604600217047B2F1807F65D3F0B540
:10126000B2FA82F7B1FA81F4C7F10F063D1B22FAF8
:1012700006F307F1110EF24120355A40B5F10F0780
:10128000B8D94140C4F12006A040F1414140B1FB32
:10129000F3FC03FB1C11A2FB0C45001BA94103D26C
:1012A000BCF1010C801859410F2F12D30F3FC90315
:1012B00041EA5041B1FBF3F603FB1611A2FB0645D0
:1012C000D4EBC030A94102D2761E8018594146EABB
:1012D000CC3C07B34140C7F12006B840F141414042
:1012E000B1FBF3F603FB1611A2FB0645001BA94157
:1012F00002D2761E8018594180EA010221FA0EF3CB
:10130000C7F1200462FA0EF20CFA07F05A402CFAE8
:1013100004F13043F0BD80EA010221FA0EF300210E
:1013200062FA0EF260465A40F0BD8C46B1FBF2F113
:1013300002FB11C31B0243EA1063B3FBF2FC02FB86
:101340001C331B024CEA002043EA1063B3FBF2FC9F
:1013500002FB1C331B024CEA002043EA1063B3FB80
:10136000F2FC02FB1C331B024CEA002043EA106330
:10137000B3FBF2FC02FB1C324CEA00200023704756
:10138000B0B581EA030C0CF0004C40F2FF7515EA91
:1013900011541DBF15EA1357AC42AF4239E0E419AE
:1013A00023EA455343F48013C90241F0004141EA66
:1013B000505EC7021100A7FB020200284FF0000098
:1013C000EEFB01204FF00001E3FB072118BF42F0C4
:1013D0000102401800214941E3FB0E01A4F580649D
:1013E0000F0302D252004041494154F101046CDD27
:1013F000470872F1004250F1000051EB0451A1F591
:1014000080115CBF41EA0C01B0BD4CEA05510020DF
:10141000B0BD05EA1357AC4214BFAF4241E050EAF9
:10142000410E1CBF52EA430E02E061460020B0BDEF
:1014300024423C441BD15FEA070EF6D0090302BFE9
:1014400001460020AEF1140EB1FA81F7AEEB0704AD
:1014500001FA07FE0C37C7F1200100FA07F7C84070
:101460004EEA000E23EA455343F48013A2E733F01B
:101470000043B3FA83F704BFB2FA82FE77440B3F0E
:10148000E41BB7F1200E2FBF02FA0EF3BB40C7F1E9
:10149000200E22FA0EFE38BF43EA0E03BA40641C47
:1014A00082E750EA410E14BF52EA430E6FF000018A
:1014B0004FF4001717EB430F8ABF194617EB410F84
:1014C000B5E74CEA05510020B0BDD4F10104B4F1F8
:1014D00020070FDAC4F12007520828BF42F00102AA
:1014E00010FA07F501FA07F7E1BF2A43E040384355
:1014F000E1400FE0352C98DCC7F1200452EA4002AD
:1015000020FA07F218BF42F0010231FA07F0A140B9
:101510000A43002172F1004250F1000051EB0C012E
:10152000B0BD000062B38B0708D0521E11F8013B1A
:1015300000F8013B00F024808B07F6D1830740F0D0
:10154000208000BF103A07D330B4B1E83810103A09
:10155000A0E83810F9D230BC530724BFB1E8081016
:10156000A0E8081044BF51F8043B40F8043BD20700
:1015700024BF31F8022B20F8022B44BF0B780370F4
:101580007047121F17D35B0009D151F8043B20F8B4
:10159000023B1B0C121F20F8023BF6D20BE051F865
:1015A000043B00F8013B1B0A20F8023B1B0C121FF6
:1015B00000F8013BF3D238BF121D521E24BF11F8B0
:1015C000013B00F8013BF8D87047000010B5144605
:1015D00000F002F8226010BDC1F30A5343B14A0083
:1015E00012F5001F28D2A3F2FE32A1EB0251704780
:1015F00050EA410C20D001F0004C31EA0C01B1FA64
:1016000081F204BFB0FA80F3D2180B3AB2F1200392
:101610002CBF00FA03F1914041EA0C013EBFC2F138
:10162000200C20FA0CF319439040524240F2FD3353
:10163000D21A01EB0351704700227047F0B540F217
:10164000FF7581EA030C0CF0004C15EA11541DBF24
:1016500015EA1357AC42AF42E5E0BC41C1F31301B8
:10166000C3F31303801A994143F4801304D2641E18
:101670004000494180185941C90241EA5051B1FB2B
:10168000F3F603FB1611A2FB0675D7EBC020A941A8
:1016900002D2761E80185941C90241EA5051B1FB6D
:1016A000F3FE03FB1E11A2FB0E75D7EBC020A94170
:1016B00003D2AEF1010E80185941890241EA9051DE
:1016C000760546EA8E2EB1FBF3F603FB1611A2FB5C
:1016D0000675D7EB8020A94102D2761E80185941A9
:1016E000C90241EA50514EEA060EB1FBF3F603FB84
:1016F0001611A2FB0675D7EBC020A94102D2761EB7
:1017000080185941C90241EA5051B1FBF3F703FB7C
:101710001711A2FB0735D3EBC020A94167F10007E1
:101720000CBF004247F0010766F3D5274FEA1E3190
:10173000B80814F5806412DDBD0775F1004250EB66
:101740000E5051EB045111F5801F5CBF41EA0C01B2
:10175000F0BD4CF07F6141F0E0410020F0BDBD07DD
:101760006D0840EA0E5041F48011D4F10104B4F147
:1017700020060ADAC4F120060200E04001FA06F36E
:10178000E1401843B24015430EE0342C13DCC6F19F
:10179000200445EA40056D0820FA06F2154321FAB7
:1017A00006F0A1400D43002175F1004250F1000008
:1017B00051EB0C01F0BD00205FEA0C01F0BDCFB988
:1017C00092185B41B3FA83F704BFB2FA82F6BF19ED
:1017D0000B3FB7F120062FBF02FA06F3BB40C7F15B
:1017E000200622FA06F638BF3343BA401CB1E4198A
:1017F000641E33E77F4231F00041B1FA81F404BF47
:10180000B0FA80F6A4190B3CB4F120062FBF00FA01
:1018100006F1A140C4F1200620FA06F638BF314394
:10182000A0403C1B1AE7AC421ABF05EA1357AF426F
:1018300012E050EA41061CBF52EA4306BFE750EAF5
:101840004107304661461CBF41EA0551F0BD52EAEE
:10185000430C08BFC143F0BD00204FF4001616EB47
:10186000410F98BF16EB430F08BF16EB410F24BF83
:10187000C14305E016EB430F0CBF61464CEA05512E
:10188000F0BD0000400D491840EA81200CD2490DFE
:10189000A1F58061491C40F0004005DBD1F11F013A
:1018A00054BFC840C017704700207047014648B178
:1018B000B0FA80F18840C91CC1F58461090501EBCB
:1018C000D02140057047000070B44FF0004591EA08
:1018D000030F40F175806B40841A71EB030603D24D
:1018E000001BB141121973414FF4001C1CEB410F56
:1018F00034BF7CEB430442E00C0DA4EB1356352EB1
:101900004FDC45EAC323DB0A45EAC121C912B6F11F
:1019100020050DDD63FA05F6EB4086EA0305124269
:1019200018BF45F00105C01851F100010CD213E0B9
:1019300062FA06F5F2405540F3415A40B340F34095
:101940005A408018594107D349085FEA30005FEADE
:10195000350528BF45F0010501F58011420875F1F4
:10196000004250F1000041EB04514E0016F5001FFB
:1019700070BC38BF70470020090D090570471CEB8B
:10198000410F10D252EA43060BD0BCEB410F05D8F1
:101990000C0DAB43661E342EB6DD02E0AB4380185F
:1019A000594170BC704770BC7047000000487047D8
:1019B0004840FF1F012000F0B9B800007047000048
:1019C000841A71EB030604D26E40001BB141121958
:1019D00073414FF4001C1CEB410F34BF7CEB4306FA
:1019E00083E00C0DA4EB1356362E00F37C80012E01
:1019F00045EAC32341DC43EA525312BFD2029202AA
:101A00005B08240545EAC12141EA5051D2EBC020D0
:101A1000994125D407D1B0FA80F610FA06F162D0C8
:101A20000020203608E0B1FA81F6B140C6F120026C
:101A300020FA02F21143B0404FEAF474B4EB46547A
:101A400034F001064FEA74040AD8D6F50016760D74
:101A500004F00044F04061FA06F25040F140484082
:101A6000C00A40EA415021F0004128BF5FEA50051A
:101A700050F1000044EBD12135E0DB0A45EAC121F9
:101A8000C90AB6F120050EDD42EA0242120CC5F188
:101A9000200603FA06F6EB4042EA06056D4298413D
:101AA00061F100010DE062FA06F5F240554063FA7B
:101AB00006FC82EA0C02F3405A406D42904161EB11
:101AC000030111F4801F05D1641E620502D06D0070
:101AD0004041494121F48011430875F1004350F120
:101AE000000041EB045170BC70471CEB410F15D254
:101AF00023F0004352EA43060BD04FEA4C0CBCEBF8
:101B0000410F04D80C0D661E342EB7DDEBE7801AAA
:101B1000994150EA410608BF0021E4E708BF1CEBE9
:101B2000430F28BF6FF00001DDE70000202109030B
:101B300026311820ABBEF9E70000000000000000CD
:101B40000000000000000000000000000000000095
:101B50000000000000004E6F6E4D61736B61626C9F
:101B60006500000000486172644661756C74000095
:101B7000000000004D656D4D616E6167656D656EBD
:101B80007400004275734661756C740000000000BB
:101B9000000055736167654661756C740000000054
:101BA0000000000000000000000000000000000035
:101BB0000000000000000000000000000000000025
:101BC0000000000000000000000000000000000015
:101BD0000000000000000000000000000053564319
:101BE000616C6C000000000000000000446562753C
:101BF000674D6F6E69746F72000000000000000096
:101C00000000000000000000000050656E645356A4
:101C10000000000000000000005379735469636BFA
:101C20000000000000000000444D413000000000B2
:101C300000000000000000444D41310000000000A1
:101C4000000000000000444D413200000000000090
:101C50000000000000444D4133000000000000007F
:101C600000000000444D413400000000000000006E
:101C7000000000444D41350000000000000000005D
:101C80000000444D4136000000000000000000004C
:101C900000444D413700000000000000000000003B
:101CA000444D4138000000000000000000000044E6
:101CB0004D41390000000000000000000000444DCC
:101CC00041313000000000000000000000444D41A0
:101CD000313100000000000000000000444D41319F
:101CE0003200000000000000000000444D4131338C
:101CF00000000000000000000000444D41313400AD
:101D0000000000000000000000444D41313500009B
:101D10000000000000000000444D415F4572726FFA
:101D2000720000000000004D434D00000000000064
:101D30000000000000004654464C00000000000077
:101D40000000000000526561645F436F6C6C697352
:101D5000696F6E004C56445F4C56570000000000FF
:101D60000000004C4C570000000000000000000084
:101D700000005761746368646F6700000000000032
:101D800000524E470000000000000000000000006C
:101D9000493243300000000000000000000000490C
:101DA00032433100000000000000000000005350EA
:101DB00049300000000000000000000000535049BE
:101DC00031000000000000000000000053504932C4
:101DD000000000000000000000000043414E305FA2
:101DE0004F525F4D425F6275660043414E305F4225
:101DF00075735F4F666600000043414E305F457269
:101E0000726F72000000000043414E305F54785FF3
:101E10005761726E696E6743414E305F52785F570B
:101E200061726E696E6743414E305F57616B655FEB
:101E30005570000000526573657276656435310037
:101E400000000000526573657276656435320000EB
:101E500000000043414E315F4F525F4D425F62755B
:101E6000660043414E315F4275735F4F6666000006
:101E70000043414E315F4572726F720000000000F6
:101E800043414E315F54785F5761726E696E6743AC
:101E9000414E315F52785F5761726E696E674341A0
:101EA0004E315F57616B655F55700000005265737E
:101EB000657276656435390000000000526573650F
:101EC000727665643630000000000055415254308F
:101ED0005F52585F54580000000055415254305F23
:101EE00045525200000000000055415254315F52EB
:101EF000585F54580000000055415254315F45521C
:101F00005200000000000055415254325F52585FA9
:101F100054580000000055415254325F455252005F
:101F2000000000000055415254335F52585F54582E
:101F30000000000055415254335F455252000000EA
:101F400000000055415254345F52585F545800000D
:101F5000000055415254345F4552520000000000C9
:101F60000055415254355F52585F545800000000EC
:101F700055415254355F4552520000000000004167
:101F80004443300000000000000000000000414415
:101F900043310000000000000000000000434D50ED
:101FA000300000000000000000000000434D5031F0
:101FB0000000000000000000000000434D5032000F
:101FC0000000000000000000000046544D300000FA
:101FD00000000000000000000046544D31000000E9
:101FE000000000000000000046544D3200000000D8
:101FF00000000000000000434D54000000000000FD
:1020000000000000000052544300000000000000E7
:102010000000000000526573657276656438330015
:102020000000000050495430000000000000000093
:102030000000005049543100000000000000000082
:102040000000504954320000000000000000000071
:102050000050495433000000000000000000000060
:102060005044423000000000000000000000005515
:1020700053423000000000000000000000005553F3
:1020800042444344000000000000000000454E456B
:10209000545F313538385F54696D6572454E45542B
:1020A0005F5472616E736D69740000454E45545FF4
:1020B00052656365697665000000454E45545F458D
:1020C00072726F720000000000493253300000004D
:1020D00000000000000000005344484300000000DE
:1020E00000000000000000444143300000000000F8
:1020F00000000000000044414331000000000000E7
:1021000000000000005453493000000000000000AF
:10211000000000004D4347000000000000000000E8
:102120000000004C5054696D657200000000000012
:1021300000005265736572766564313032000000CC
:1021400000504F5254410000000000000000000009
:10215000504F5254420000000000000000000050A8
:102160004F52544300000000000000000000504F98
:1021700052544400000000000000000000504F5284
:102180005445000000000000000000005265736527
:1021900072766564313038000000005265736572F4
:1021A00076656431303900000000526573657276DF
:1021B00065643131300000000052657365727665E8
:1021C00064313131000000005265736572766564D8
:1021D00031313200000000526573657276656431FA
:1021E00031330000000052657365727665643131E9
:1021F00034000000005265736572766564313135D4
:1022000000000000526573657276656431313600F6
:1022100000000052657365727665643131370000E5
:1022200000005265736572766564313138000000D4
:1022300000526573657276656431313900000000C3
:10224000008003400090034000800B4000F00F40EE
:1022500040F00F4080F00F40C0F00F4000F10F4001
:10226000F0000A1D30001800320018016000181834
:102270006400181A6E00181F780013187D00131AD6
:102280008200131C8C000E1296000E15A0000E1872
:10229000AA000E1BB4000E1EC8000C1CE1000B1E91
:1022A000FA000A1F000109080090044000A0044041
:1022B00000B0044000C0044000D0044000A006402C
:1022C00000B0064000C0064000D0064000A00E400E
:1022D00000B00E406A6E6B6C676D4E4F343536370A
:1022E0009C38FF1F9C38FF1F9C38FF1F9C38FF1F26
:1022F0009C38FF1F9C38FF1F9C38FF1FFFFFFFFF0C
:10230000FFFFFFFF9E38FF1F9C38FF1F9C38FF1FF9
:10231000FFFFFFFFFFFF0000020401019042FF1FCB
:10232000E042FF1F9042FF1F9042FF1F000000008D
:102330009042FF1F00000000C440FF1FB040FF1F7D
:10234000000000000000000000000000000000008D
:10235000000000000000000000000000000000007D
:1023600010B4DFF88813020052B231F822100200D4
:1023700052B2012AC0F26C81020052B2112A80F2DC
:102380006781DFF86C23002313700B009BB2312BA5
:1023900002DA0023537077E00B009BB2612B02DA64
:1023A0000123537070E00B009BB2912B02DA0223E1
:1023B000537069E00B009BB2C12B02DA0323537008
:1023C00062E00B009BB2F12B02DA042353705BE056
:1023D0000B009BB240F22114A34202DA0523537092
:1023E00052E00B009BB240F25114A34202DA0623E2
:1023F000537049E00B009BB240F28114A34202DA11
:102400000723537040E00B009BB240F2B114A3428B
:1024100002DA0823537037E00B009BB240F2E1145C
:10242000A34202DA092353702EE00B009BB240F264
:102430001124A34202DA0A23537025E00B009BB259
:1024400040F24124A34202DA0B2353701CE00B003C
:102450009BB240F27124A34202DA0C23537013E0C2
:102460000B009BB240F2A124A34202DA0D23537069
:102470000AE00B009BB240F2D124A34202DA0E2301
:10248000537001E00F2353700B009BB21A2B02DA3A
:10249000002393706AE00B009BB2332B02DA012316
:1024A000937063E00B009BB24C2B02DA0223937013
:1024B0005CE00B009BB2652B02DA0323937055E0BE
:1024C0000B009BB27E2B02DA042393704EE00B00CC
:1024D0009BB2972B02DA0523937047E00B009BB267
:1024E000B02B02DA0623937040E00B009BB2C92B9D
:1024F00002DA0723937039E00B009BB2E22B02DA79
:102500000823937032E00B009BB2FB2B02DA092305
:1025100093702BE00B009BB2B3F58A7F02DA0A239B
:10252000937023E00B009BB240F22D14A34202DA19
:102530000B2393701AE00B009BB2B3F5A37F02DA72
:102540000C23937012E00B009BB240F25F14A34285
:1025500002DA0D23937009E00B009BB2B3F5BC7F48
:1025600002DA0E23937001E00F2393700B009BB2ED
:102570001A2B02DA0023D3706AE00B009BB2332BD4
:1025800002DA0123D37063E00B009BB24C2B02DA1A
:102590000223D3705CE00B009BB2652B02DA0323AD
:1025A000D37055E00B009BB27E2B02DA0423D3706C
:1025B0004EE00B009BB2972B02DA0523D37047E065
:1025C0000B009BB2B02B02DA0623D37040E00B0065
:1025D0009BB2C92B02DA0723D37039E00B009BB200
:1025E000E22B02DA0823D37032E00B009BB2FB2B04
:1025F00002DA0923D3702BE00B009BB2B3F58A7F7C
:1026000002DA0A23D37023E00B009BB240F22D14B0
:10261000A34202DA0B23D3701AE00B009BB2B3F58E
:10262000A37F02DA0C23D37012E00B009BB240F2BE
:102630005F14A34202DA0D23D37009E00B009BB2B2
:10264000B3F5BC7F02DA0E23D37001E00F23D37001
:1026500010BC704770B50400200040B2FFF780FE48
:102660002448017811F0FD010170017851F010014A
:102670000170214DB8202870204E3078C006FBD460
:102680003078C0F381000228FAD11948C3788278E3
:102690004178007801F0CAFD1448210049B200EBEE
:1026A0008101897811F01F01154A1170210049B28A
:1026B00000EB8101C97811F01F0151F04001114A6E
:1026C000117031788906FCD531784906FCD5297816
:1026D00011F03F0129703178C1F381010329FAD14A
:1026E00064B230F82400C0B270BD0000C83FFF1FC4
:1026F0000C40FF1F014006400040064006400640D7
:10270000044006400540064038B504000D00200096
:1027100040B2002803D0022864D048D37DE0DFF81F
:102720006403016851F080710160280040B2002804
:102730000BD0022815D00ED304281ED017D306289C
:1027400027D020D307282AD02FE04FF480614120E2
:1027500000F0A4F92AE04FF44071042000F09EF943
:1027600024E04FF44071052000F098F91EE04FF48A
:102770004071062000F092F918E04FF440710720F4
:1027800000F08CF912E04FF48061652000F086F9CA
:102790000CE04FF48061662000F080F906E04FF411
:1027A0008061672000F07AF900E036E035E0DFF87C
:1027B000D402016851F000710160280040B2002885
:1027C00002D0012806D00BE04FF440710C2000F03D
:1027D00065F906E04FF440710D2000F05FF900E06C
:1027E0001BE01AE0DFF8A002016851F0807101607F
:1027F000280040B2002802D0012806D00BE04FF498
:1028000040710A2000F04AF906E04FF440710B20B5
:1028100000F044F900E000E0FFE731BD2DE9F84F9A
:1028200004000D0016001F00200040B2002811D047
:10283000200040B2012803D0200040B2022803D17A
:10284000280040B2022805DB40F28511DFF83C0287
:1028500000F08CF9290049B2200040B2FFF754FF84
:10286000DFF82C02D0F800904FF47A7000FB09F9E1
:102870004846000CB0FBF6FA5FF0000B504680B201
:1028800050FA0BF0012802DB1BF1010BF6E758466A
:10289000C0B2082805DB4FF4D071DFF8F00100F07A
:1028A00065F9484630FA0BF0B0FBF6F0010089B24A
:1028B000DFF8E02123005BB242F82310210049B287
:1028C000002903D0022915D00AD31DE0010089B2E6
:1028D000491C01FB07F16422B1FBF2F1884613E0C9
:1028E000010089B2491C01FB07F16422B1FBF2F13E
:1028F000884609E0010089B2491C01FB07F1642206
:10290000B1FBF2F18846FFE7DFF88C11220052B2EA
:1029100051F822202B005BB202EBC30223005BB212
:1029200051F82330AC464FFA8CFC03EBCC03DB6848
:1029300033F00403D360220052B251F822202B005E
:102940005BB202EBC3022823D3605A46D2B212F024
:10295000070252F0080223005BB251F823301A60DC
:10296000020092B223005BB251F823309A60002239
:1029700023005BB251F82330DA64220052B251F8DE
:1029800022202B005BB202EBC30243469BB21361D1
:10299000002223005BB251F823104A60BDE8F18F9A
:1029A0002DE9F04180460C0015000027404640B25A
:1029B000002811D0404640B2012803D0404640B222
:1029C000022803D1200040B2022805DB4FF4F37146
:1029D000DFF8B80000F0CAF8404640B2002803D043
:1029E000022813D009D31AE0652D05D34FF4F671F0
:1029F000DFF8980000F0BAF811E0652D05D34FF428
:102A0000F871DFF8880000F0B1F808E0652D05D313
:102A10004FF4FA71DFF8740000F0A8F8FFE7DFF870
:102A20007400414649B250F82100414649B200299C
:102A300003D0022911D008D317E0411C01FB05F196
:102A40006422B1FBF2F10E000FE0411C01FB05F125
:102A50006422B1FBF2F10E0007E0411C01FB05F11D
:102A60006422B1FBF2F10E00FFE7DFF82C104246C2
:102A700052B251F82210220052B201EBC2010E6193
:102A8000BDE8F0813C800440308004402436FF1FC4
:102A90008842FF1F7442FF1FA83FFF1F30B42B4B1B
:102AA0001C684FF400750200D2B2520995402C43C5
:102AB0001C60274B0200D2B2521153F8224001256C
:102AC00010F01F029540C4F8A0500200D2B252117B
:102AD00053F822200300DBB213F01F0342F8231047
:102AE00030BC704730B4194B1C684FF400750200BD
:102AF000D2B2520995402C431C60154B0200D2B251
:102B0000521153F82240012510F01F029540C4F8DD
:102B1000A05031F4E0610200D2B2521153F82220E9
:102B20000400E4B214F01F0452F8242012F4E0620E
:102B300011430200D2B2521153F822200300DBB23B
:102B400013F01F0342F8231030BC70473880044054
:102B50001040FF1FBFF34F8F46490A6812F4E0622E
:102B6000454802430A60BFF34F8FFEE738B50400C3
:102B70000D00002000F08EF82A0021003F4800F0F0
:102B8000C9F8002000F0A6F84FF47A7000F0EFF8D2
:102B9000F2E738B504000D00210049B2002000F032
:102BA000F8F9200032BD10B50024042000F00CFA22
:102BB000042000F043FA002842D1002000F06AF817
:102BC000042000F03BFA012801D10120040000207C
:102BD00000F080F82A4800F09DF84FF4FA7000F0F9
:102BE000C6F82000C0B20128EAD1042000F026FA7D
:102BF0000028E5D1042000F021FA002806D10020A9
:102C000000F068F8642000F0B2F8F3E7042000F068
:102C100015FA012806D1002000F05CF8322000F0FF
:102C2000A6F8F3E7174800F075F801F05BFA6420A6
:102C300000F09DF8002001F06AFAFFF78BFFBFE774
:102C400010BD10B510480468012000F023F80120E1
:102C500000F040F80D492200D2B20F2042430A444E
:102C60002100C9B20A4800F055F84FF47A7000F01C
:102C70007EF8ECE70CED00E00400FA05B437FF1F26
:102C80007C38FF1F0838FF1F04ED00E0A038FF1F4D
:102C90005037FF1F10B50400200040B2042808DAA6
:102CA000012201211A4823005BB2C05C00F0DEF96A
:102CB0000FE0042004002000441E40B2002808D089
:102CC00001220121124823005BB2C05C00F0CEF962
:102CD000F1E710BD10B50400200040B2042806DA68
:102CE0000B48210049B2405C00F01BFA0DE00420C3
:102CF00004002000441E40B2002806D004482100F1
:102D000049B2405C00F00DFAF3E710BD000000008E
:102D10004440FF1F0EB4C0B5024603A80021019035
:102D2000009101AB0121044878440C30FDF774FB9D
:102D300006BC5DF810FB00BF230B000010B50400BB
:102D4000002C13D0B4F1807F03D329210E48FFF764
:102D50000DFF0E48002101600D490C6000210D4A55
:102D60001160052101600168C903FCD510BD10B5D3
:102D700004002000441E002804D007480068FFF724
:102D8000DDFFF6E710BD0000D435FF1F10E000E0C6
:102D900014E000E018E000E08042FF1F2DE9F84356
:102DA00004000D00200040B2002808D0022828D0DE
:102DB00016D3042847D035D3052855D065E0DFF871
:102DC000F001016851F4806101604FF440716620A8
:102DD000FFF764FE4FF440716720FFF75FFE54E099
:102DE000DFF8CC01016851F4006101604FF44071DB
:102DF0004320FFF753FE4FF440714420FFF74EFE8F
:102E000043E0DFF8AC01016851F4805101604FF4F8
:102E100040716320FFF742FE4FF440716220FFF7DC
:102E20003DFE32E0DFF88801016851F40051016095
:102E30004FF440715020FFF731FE4FF440715120A4
:102E4000FFF72CFE21E0DFF86C01016851F480618E
:102E500001604FF440714E20FFF720FE4FF44071A7
:102E60004F20FFF71BFE10E0DFF84801016851F426
:102E7000006101604FF440718920FFF70FFE4FF4AD
:102E800040718820FFF70AFEFFE7DFF82C61200081
:102E900040B256F82000C07810F0F300210049B28B
:102EA00056F82110C870200040B256F820008078F3
:102EB000210049B256F821108870200040B2002845
:102EC00003D0200040B2012806D1DFF8F0000768E7
:102ED0004FF47A70474305E0DFF8E40007684FF4E9
:102EE0007A7047432801B7FBF0F8404680B2B0F54E
:102EF000005F02DB41F6FF708046B7FBF5F9404604
:102F000080B2B9EB0019484680B2202803DBDC21EF
:102F10002C48FFF72BFE200040B256F82000007826
:102F200010F0E000C8F304210143220052B256F829
:102F300022201170210049B256F8211081F8018039
:102F4000210049B256F82110897A11F0E00119F0F8
:102F50001F020A4323005BB256F823309A72220004
:102F600052B256F82220127C52F0880223005BB243
:102F700056F823301A74220052B256F82220D27822
:102F800052F00C0223005BB256F82330DA70BDE831
:102F9000F183094A03005BB252F823301B791B0608
:102FA000F7D503005BB252F82320D17170470000BF
:102FB00034800440288004402440FF1F8042FF1FCB
:102FC0008842FF1FBC36FF1F38B50400200040B206
:102FD00008280EDA244D00220021200040B2285C8F
:102FE00000F044F80321200040B2285CFFF77AFD8E
:102FF00015E0082004002000441E40B200280ED036
:10300000194D00220021200040B2285C00F02EF86B
:103010000321200040B2285CFFF764FDEBE731BDDF
:1030200010B504001048210049B2405C00F096F849
:10303000002801D1002000E0012010BD10B50400DF
:10304000200040B2FFF7ECFF00280AD10A20FFF76A
:103050008EFE200040B2FFF7E3FF002801D10020E0
:1030600000E0012010BD00003C40FF1FF8B5040047
:103070000D0016004FF480712000C0B2FFF70EFD66
:10308000280040B2002812D144482100C9B2491199
:1030900050F821102200D2B2521150F82200426999
:1030A000012314F01F0083409A434A6138E0012154
:1030B0003A4A2000C0B2401152F820002300DBB28F
:1030C0005B1152F823305B6914F01F0711FA07F700
:1030D0003B4343613000C0B2002811D12000C0B290
:1030E000401152F82000036814F01F00814033EAB9
:1030F00001012000C0B2401152F8200001600FE031
:103100002000C0B2401152F82000036814F01F00E4
:10311000814019432000C0B2401152F820000160E4
:10312000F1BD38B504001D4D2000C0B2401155F866
:103130002000406914F01F01C840C00703D47B2160
:103140001748FFF713FD2000C0B2401155F82010BA
:10315000012214F01F008240CA6031BD38B504005E
:103160000E4D2000C0B2401155F82000406914F007
:103170001F01C840C00703D58C210948FFF7F6FCA2
:103180002000C0B2401155F82000006914F01F045F
:10319000E04010F0010032BD00000000B43FFF1F0E
:1031A0007036FF1F4C48F021017001780906FCD5EC
:1031B000007810F0710F01D0002000E0012070476E
:1031C00080B54648016851F4002101604448016817
:1031D00051F400210160404801780906FBD5F02137
:1031E00001700A20FEF731FE01BD1CB5040021006C
:1031F00089B24FF4006041430091092039490870B9
:103200009DF80200384908709DF8010037490870A0
:103210009DF8000036490870FFF7C4FF002801D16F
:1032200000200DE0200080B2002808D17FF00102CC
:1032300040F20C41200080B200F003F800E00120D1
:1032400016BD7CB506000C001500310089B24FF4A4
:103250000060414311FA84F00190200080B2042103
:1032600090FBF1F201FB1200002803D0EA21214873
:10327000FEF7EAFC200080B240F60101884203DB41
:10328000EC211C48FEF7E0FC9DF80600164908708A
:103290009DF80500154908709DF804001449087050
:1032A00000959DF80300144908709DF80200134929
:1032B00008709DF80100124908709DF8000011493E
:1032C0000870062007490870FFF76CFF002801D13D
:1032D000002000E0012076BD0000024004F0014023
:1032E00008F00140070002400600024005000240CD
:1032F000040002408435FF1F0B0002400A00024018
:103300000900024008000240F0B40F4E34683568EE
:1033100055F47F0535600D0615F0706555EA0075AA
:10332000170517F470073D431F0417F470273D433A
:10333000064F3D6000252F00FFB29F4201D26D1C59
:10334000F9E73460F0BC704700F00140448004406D
:1033500080B500F089F800F028F800F00AF8FFF7CF
:1033600022FC012201210420FFF780FE00F09CF8DE
:10337000FEE710B52E4C0320FFF76CF920602D49B5
:1033800022684FF47A7042430A6008682A49096843
:10339000C1F30361491CB0FBF1F0284908605FF4F8
:1033A000E1310020FFF7FAFC10BD2DE9F04124497E
:1033B000244888420AD000221400B4F5826F05D256
:1033C00051F8242040F82420641CF6E700F0C4F8EB
:1033D0001D4B1E4A1E498E1A3000461E002804D07E
:1033E00010781870521C5B1CF6E71A4D1A4C671BBC
:1033F0003800471E002803D0002028706D1CF7E716
:10340000DFF858C0DFF858E0DFF85880B8EB0E0658
:103410003000461E002808D09EF800008CF80000FE
:103420001EF1010E1CF1010CF2E7BDE8F081000075
:103430008442FF1F8042FF1F448004408842FF1FD8
:103440000000FF1F0000FF1FA038FF1F381BFF1FD9
:103450006023FF1F7442FF1FE042FF1FC840FF1F91
:10346000A431FF1F5033FF1F80B500F007F80C494F
:103470000A884FF6FE7002400A8001BDEFF311800A
:1034800072B608494CF220520A804DF628120A8082
:103490000100C9B2002900D162B6704700000000E7
:1034A000002005400E20054038B532245FF4E1319C
:1034B0000020FFF773FC2748FFF72CFC44F620653B
:1034C00032232A0002210020FFF7A8F964232A00F2
:1034D00003210020FFF7A2F964232A000421002021
:1034E000FFF79CF964232A0000210120FFF796F9D9
:1034F000642202210020FFF753FA46220321002014
:10350000FFF74EFA462204210020FFF749FA642211
:1035100000210120FFF744FA4FF47A70FFF727FCEF
:10352000462202210020FFF73BFA642203210020FB
:10353000FFF736FA642204210020FFF731FA462211
:1035400000210120FFF72CFA4FF47A70FFF70FFCEF
:10355000CEE700BFE837FF1F10B504004FF400703E
:1035600094FBF0F100FB1140002803D01E2103481A
:10357000FFF7FCFA0248046010BD00000837FF1F87
:1035800008ED00E0443A5C73747564795C476974D3
:103590006875625C64656D6F5C424A545577682D4E
:1035A000646C71782D496E74656C6C6967656E74B6
:1035B0002D4361725C7461736B355C436869705C48
:1035C0007372635C4D4B36305F666C6173682E635B
:1035D00000000000443A5C73747564795C47697458
:1035E0006875625C64656D6F5C424A545577682DFE
:1035F000646C71782D496E74656C6C6967656E7466
:103600002D4361725C7461736B355C436869705CF7
:103610007372635C4D4B36305F5379735469636BDF
:103620002E630000443A5C73747564795C47697476
:103630006875625C64656D6F5C424A545577682DAD
:10364000646C71782D496E74656C6C6967656E7415
:103650002D4361725C7461736B355C436869705CA7
:103660007372635C4D4B36305F66746D2E63000081
:10367000443A5C73747564795C4769746875625C1C
:1036800064656D6F5C424A545577682D646C71783F
:103690002D496E74656C6C6967656E742D4361723B
:1036A0005C7461736B355C436869705C7372635CF6
:1036B0004D4B36305F6770696F2E6300443A5C7320
:1036C000747564795C4769746875625C64656D6F74
:1036D0005C424A545577682D646C71782D496E743C
:1036E000656C6C6967656E742D4361725C7461739F
:1036F0006B355C436869705C7372635C4D4B36304C
:103700005F756172742E6300443A5C7374756479FA
:103710005C4769746875625C64656D6F5C424A54AD
:103720005577682D646C71782D496E74656C6C6981
:1037300067656E742D4361725C7461736B355C43B5
:103740006869705C7372635C6D6973632E630000FB
:103750000A2A2A2A2A64656661756C745F69737225
:1037600020656E7465726564206F6E207665637483
:103770006F722025642A2A2A2A2A0A0A25732049D8
:103780006E746572727570740000000010B50749A0
:1037900079441831064C7C44163404E00A68081D4C
:1037A000114488470146A142F8D110BD2C00000009
:1037B00038000000417373657274696F6E20666132
:1037C000696C656420696E202573206174206C69C2
:1037D0006E652025640A000057D8FFFF6C000000CA
:1037E0007442FF1F000000000A2A2A2A2A2A46548F
:1037F0004D20B5E7BBFAB2E2CAD420B2E2CAD42A5D
:103800002A2A2A2A0A0000000ABDF8D0D0BDE2CB3D
:10381000F8B2D9D7F7A3ACC7EBD6D8D0C2CBA2C8E1
:10382000EBB9CCBCFE00000000F00DF8002801D080
:10383000FFF7ACFFAFF300800020AFF30080FFF78D
:1038400033FE00F002F80120704700F001B80000DC
:1038500007463846FEF76AF9FBE738B504460D46D9
:10386000284600F005F8A84218BF0024204632BDC3
:103870000149FFF78EB900BF8040FF1F0ABDF8C89D
:10388000EBCBC0D1ADBBB7B5C8B4FDA3A100000060
:10389000AFF30080AFF30080FFF7C6FF00002E00FB
:1038A0000000000000000000000000000000000018
:1038B0000000000000000000000000000000000008
:1038C00000000000000000000000000000000000F8
:1038D00000000000000000000000000000000000E8
:040000051FFF389110
:00000001FF
